{
  "address": "0x0AEA7383D06eAa11D036CaFbbC1DC9e54bB0dbCa",
  "abi": [
    {
      "inputs": [
        {
          "internalType": "address",
          "name": "token_",
          "type": "address"
        },
        {
          "internalType": "address",
          "name": "lzEndpoint_",
          "type": "address"
        },
        {
          "internalType": "address",
          "name": "delegate_",
          "type": "address"
        },
        {
          "internalType": "uint256",
          "name": "initialCap_",
          "type": "uint256"
        }
      ],
      "stateMutability": "nonpayable",
      "type": "constructor"
    },
    {
      "inputs": [
        {
          "internalType": "uint256",
          "name": "amountSD",
          "type": "uint256"
        }
      ],
      "name": "AmountSDOverflowed",
      "type": "error"
    },
    {
      "inputs": [
        {
          "internalType": "uint256",
          "name": "newCap",
          "type": "uint256"
        },
        {
          "internalType": "uint256",
          "name": "currentBridged",
          "type": "uint256"
        }
      ],
      "name": "BridgeCapBelowCurrentBridged",
      "type": "error"
    },
    {
      "inputs": [],
      "name": "BridgeCapCannotBeZero",
      "type": "error"
    },
    {
      "inputs": [
        {
          "internalType": "uint256",
          "name": "requested",
          "type": "uint256"
        },
        {
          "internalType": "uint256",
          "name": "available",
          "type": "uint256"
        }
      ],
      "name": "BridgeCapExceeded",
      "type": "error"
    },
    {
      "inputs": [],
      "name": "CannotRecoverBridgeToken",
      "type": "error"
    },
    {
      "inputs": [],
      "name": "ContractPaused",
      "type": "error"
    },
    {
      "inputs": [],
      "name": "InvalidDelegate",
      "type": "error"
    },
    {
      "inputs": [],
      "name": "InvalidEndpointCall",
      "type": "error"
    },
    {
      "inputs": [],
      "name": "InvalidLocalDecimals",
      "type": "error"
    },
    {
      "inputs": [
        {
          "internalType": "bytes",
          "name": "options",
          "type": "bytes"
        }
      ],
      "name": "InvalidOptions",
      "type": "error"
    },
    {
      "inputs": [],
      "name": "LzTokenUnavailable",
      "type": "error"
    },
    {
      "inputs": [
        {
          "internalType": "uint32",
          "name": "eid",
          "type": "uint32"
        }
      ],
      "name": "NoPeer",
      "type": "error"
    },
    {
      "inputs": [
        {
          "internalType": "uint256",
          "name": "msgValue",
          "type": "uint256"
        }
      ],
      "name": "NotEnoughNative",
      "type": "error"
    },
    {
      "inputs": [
        {
          "internalType": "address",
          "name": "addr",
          "type": "address"
        }
      ],
      "name": "OnlyEndpoint",
      "type": "error"
    },
    {
      "inputs": [
        {
          "internalType": "uint32",
          "name": "eid",
          "type": "uint32"
        },
        {
          "internalType": "bytes32",
          "name": "sender",
          "type": "bytes32"
        }
      ],
      "name": "OnlyPeer",
      "type": "error"
    },
    {
      "inputs": [],
      "name": "OnlySelf",
      "type": "error"
    },
    {
      "inputs": [],
      "name": "RateLimitExceeded",
      "type": "error"
    },
    {
      "inputs": [
        {
          "internalType": "bytes",
          "name": "result",
          "type": "bytes"
        }
      ],
      "name": "SimulationResult",
      "type": "error"
    },
    {
      "inputs": [
        {
          "internalType": "uint256",
          "name": "amountLD",
          "type": "uint256"
        },
        {
          "internalType": "uint256",
          "name": "minAmountLD",
          "type": "uint256"
        }
      ],
      "name": "SlippageExceeded",
      "type": "error"
    },
    {
      "inputs": [],
      "name": "ZeroAddress",
      "type": "error"
    },
    {
      "inputs": [],
      "name": "ZeroAmount",
      "type": "error"
    },
    {
      "anonymous": false,
      "inputs": [
        {
          "indexed": false,
          "internalType": "uint256",
          "name": "oldCap",
          "type": "uint256"
        },
        {
          "indexed": false,
          "internalType": "uint256",
          "name": "newCap",
          "type": "uint256"
        }
      ],
      "name": "BridgeCapUpdated",
      "type": "event"
    },
    {
      "anonymous": false,
      "inputs": [
        {
          "components": [
            {
              "internalType": "uint32",
              "name": "eid",
              "type": "uint32"
            },
            {
              "internalType": "uint16",
              "name": "msgType",
              "type": "uint16"
            },
            {
              "internalType": "bytes",
              "name": "options",
              "type": "bytes"
            }
          ],
          "indexed": false,
          "internalType": "struct EnforcedOptionParam[]",
          "name": "_enforcedOptions",
          "type": "tuple[]"
        }
      ],
      "name": "EnforcedOptionSet",
      "type": "event"
    },
    {
      "anonymous": false,
      "inputs": [
        {
          "indexed": false,
          "internalType": "address",
          "name": "inspector",
          "type": "address"
        }
      ],
      "name": "MsgInspectorSet",
      "type": "event"
    },
    {
      "anonymous": false,
      "inputs": [
        {
          "indexed": true,
          "internalType": "bytes32",
          "name": "guid",
          "type": "bytes32"
        },
        {
          "indexed": false,
          "internalType": "uint32",
          "name": "srcEid",
          "type": "uint32"
        },
        {
          "indexed": true,
          "internalType": "address",
          "name": "toAddress",
          "type": "address"
        },
        {
          "indexed": false,
          "internalType": "uint256",
          "name": "amountReceivedLD",
          "type": "uint256"
        }
      ],
      "name": "OFTReceived",
      "type": "event"
    },
    {
      "anonymous": false,
      "inputs": [
        {
          "indexed": true,
          "internalType": "bytes32",
          "name": "guid",
          "type": "bytes32"
        },
        {
          "indexed": false,
          "internalType": "uint32",
          "name": "dstEid",
          "type": "uint32"
        },
        {
          "indexed": true,
          "internalType": "address",
          "name": "fromAddress",
          "type": "address"
        },
        {
          "indexed": false,
          "internalType": "uint256",
          "name": "amountSentLD",
          "type": "uint256"
        },
        {
          "indexed": false,
          "internalType": "uint256",
          "name": "amountReceivedLD",
          "type": "uint256"
        }
      ],
      "name": "OFTSent",
      "type": "event"
    },
    {
      "anonymous": false,
      "inputs": [
        {
          "indexed": true,
          "internalType": "address",
          "name": "previousOwner",
          "type": "address"
        },
        {
          "indexed": true,
          "internalType": "address",
          "name": "newOwner",
          "type": "address"
        }
      ],
      "name": "OwnershipTransferred",
      "type": "event"
    },
    {
      "anonymous": false,
      "inputs": [
        {
          "indexed": false,
          "internalType": "address",
          "name": "account",
          "type": "address"
        }
      ],
      "name": "Paused",
      "type": "event"
    },
    {
      "anonymous": false,
      "inputs": [
        {
          "indexed": false,
          "internalType": "uint32",
          "name": "eid",
          "type": "uint32"
        },
        {
          "indexed": false,
          "internalType": "bytes32",
          "name": "peer",
          "type": "bytes32"
        }
      ],
      "name": "PeerSet",
      "type": "event"
    },
    {
      "anonymous": false,
      "inputs": [
        {
          "indexed": false,
          "internalType": "address",
          "name": "preCrimeAddress",
          "type": "address"
        }
      ],
      "name": "PreCrimeSet",
      "type": "event"
    },
    {
      "anonymous": false,
      "inputs": [
        {
          "components": [
            {
              "internalType": "uint32",
              "name": "dstEid",
              "type": "uint32"
            },
            {
              "internalType": "uint256",
              "name": "limit",
              "type": "uint256"
            },
            {
              "internalType": "uint256",
              "name": "window",
              "type": "uint256"
            }
          ],
          "indexed": false,
          "internalType": "struct RateLimiter.RateLimitConfig[]",
          "name": "rateLimitConfigs",
          "type": "tuple[]"
        }
      ],
      "name": "RateLimitsChanged",
      "type": "event"
    },
    {
      "anonymous": false,
      "inputs": [
        {
          "indexed": true,
          "internalType": "address",
          "name": "token",
          "type": "address"
        },
        {
          "indexed": true,
          "internalType": "address",
          "name": "to",
          "type": "address"
        },
        {
          "indexed": false,
          "internalType": "uint256",
          "name": "amount",
          "type": "uint256"
        }
      ],
      "name": "TokensRecovered",
      "type": "event"
    },
    {
      "anonymous": false,
      "inputs": [
        {
          "indexed": false,
          "internalType": "address",
          "name": "account",
          "type": "address"
        }
      ],
      "name": "Unpaused",
      "type": "event"
    },
    {
      "inputs": [],
      "name": "SEND",
      "outputs": [
        {
          "internalType": "uint16",
          "name": "",
          "type": "uint16"
        }
      ],
      "stateMutability": "view",
      "type": "function"
    },
    {
      "inputs": [],
      "name": "SEND_AND_CALL",
      "outputs": [
        {
          "internalType": "uint16",
          "name": "",
          "type": "uint16"
        }
      ],
      "stateMutability": "view",
      "type": "function"
    },
    {
      "inputs": [
        {
          "components": [
            {
              "internalType": "uint32",
              "name": "srcEid",
              "type": "uint32"
            },
            {
              "internalType": "bytes32",
              "name": "sender",
              "type": "bytes32"
            },
            {
              "internalType": "uint64",
              "name": "nonce",
              "type": "uint64"
            }
          ],
          "internalType": "struct Origin",
          "name": "origin",
          "type": "tuple"
        }
      ],
      "name": "allowInitializePath",
      "outputs": [
        {
          "internalType": "bool",
          "name": "",
          "type": "bool"
        }
      ],
      "stateMutability": "view",
      "type": "function"
    },
    {
      "inputs": [],
      "name": "approvalRequired",
      "outputs": [
        {
          "internalType": "bool",
          "name": "",
          "type": "bool"
        }
      ],
      "stateMutability": "pure",
      "type": "function"
    },
    {
      "inputs": [],
      "name": "bridgeCap",
      "outputs": [
        {
          "internalType": "uint256",
          "name": "",
          "type": "uint256"
        }
      ],
      "stateMutability": "view",
      "type": "function"
    },
    {
      "inputs": [],
      "name": "bridgedAmount",
      "outputs": [
        {
          "internalType": "uint256",
          "name": "",
          "type": "uint256"
        }
      ],
      "stateMutability": "view",
      "type": "function"
    },
    {
      "inputs": [
        {
          "internalType": "uint32",
          "name": "_eid",
          "type": "uint32"
        },
        {
          "internalType": "uint16",
          "name": "_msgType",
          "type": "uint16"
        },
        {
          "internalType": "bytes",
          "name": "_extraOptions",
          "type": "bytes"
        }
      ],
      "name": "combineOptions",
      "outputs": [
        {
          "internalType": "bytes",
          "name": "",
          "type": "bytes"
        }
      ],
      "stateMutability": "view",
      "type": "function"
    },
    {
      "inputs": [],
      "name": "decimalConversionRate",
      "outputs": [
        {
          "internalType": "uint256",
          "name": "",
          "type": "uint256"
        }
      ],
      "stateMutability": "view",
      "type": "function"
    },
    {
      "inputs": [],
      "name": "endpoint",
      "outputs": [
        {
          "internalType": "contract ILayerZeroEndpointV2",
          "name": "",
          "type": "address"
        }
      ],
      "stateMutability": "view",
      "type": "function"
    },
    {
      "inputs": [
        {
          "internalType": "uint32",
          "name": "eid",
          "type": "uint32"
        },
        {
          "internalType": "uint16",
          "name": "msgType",
          "type": "uint16"
        }
      ],
      "name": "enforcedOptions",
      "outputs": [
        {
          "internalType": "bytes",
          "name": "enforcedOption",
          "type": "bytes"
        }
      ],
      "stateMutability": "view",
      "type": "function"
    },
    {
      "inputs": [
        {
          "internalType": "uint32",
          "name": "_dstEid",
          "type": "uint32"
        }
      ],
      "name": "getAmountCanBeSent",
      "outputs": [
        {
          "internalType": "uint256",
          "name": "currentAmountInFlight",
          "type": "uint256"
        },
        {
          "internalType": "uint256",
          "name": "amountCanBeSent",
          "type": "uint256"
        }
      ],
      "stateMutability": "view",
      "type": "function"
    },
    {
      "inputs": [],
      "name": "getAvailableCapacity",
      "outputs": [
        {
          "internalType": "uint256",
          "name": "",
          "type": "uint256"
        }
      ],
      "stateMutability": "view",
      "type": "function"
    },
    {
      "inputs": [],
      "name": "getBridgeCap",
      "outputs": [
        {
          "internalType": "uint256",
          "name": "",
          "type": "uint256"
        }
      ],
      "stateMutability": "view",
      "type": "function"
    },
    {
      "inputs": [],
      "name": "getBridgedAmount",
      "outputs": [
        {
          "internalType": "uint256",
          "name": "",
          "type": "uint256"
        }
      ],
      "stateMutability": "view",
      "type": "function"
    },
    {
      "inputs": [
        {
          "components": [
            {
              "internalType": "uint32",
              "name": "srcEid",
              "type": "uint32"
            },
            {
              "internalType": "bytes32",
              "name": "sender",
              "type": "bytes32"
            },
            {
              "internalType": "uint64",
              "name": "nonce",
              "type": "uint64"
            }
          ],
          "internalType": "struct Origin",
          "name": "",
          "type": "tuple"
        },
        {
          "internalType": "bytes",
          "name": "",
          "type": "bytes"
        },
        {
          "internalType": "address",
          "name": "_sender",
          "type": "address"
        }
      ],
      "name": "isComposeMsgSender",
      "outputs": [
        {
          "internalType": "bool",
          "name": "",
          "type": "bool"
        }
      ],
      "stateMutability": "view",
      "type": "function"
    },
    {
      "inputs": [
        {
          "internalType": "uint32",
          "name": "_eid",
          "type": "uint32"
        },
        {
          "internalType": "bytes32",
          "name": "_peer",
          "type": "bytes32"
        }
      ],
      "name": "isPeer",
      "outputs": [
        {
          "internalType": "bool",
          "name": "",
          "type": "bool"
        }
      ],
      "stateMutability": "view",
      "type": "function"
    },
    {
      "inputs": [
        {
          "components": [
            {
              "internalType": "uint32",
              "name": "srcEid",
              "type": "uint32"
            },
            {
              "internalType": "bytes32",
              "name": "sender",
              "type": "bytes32"
            },
            {
              "internalType": "uint64",
              "name": "nonce",
              "type": "uint64"
            }
          ],
          "internalType": "struct Origin",
          "name": "_origin",
          "type": "tuple"
        },
        {
          "internalType": "bytes32",
          "name": "_guid",
          "type": "bytes32"
        },
        {
          "internalType": "bytes",
          "name": "_message",
          "type": "bytes"
        },
        {
          "internalType": "address",
          "name": "_executor",
          "type": "address"
        },
        {
          "internalType": "bytes",
          "name": "_extraData",
          "type": "bytes"
        }
      ],
      "name": "lzReceive",
      "outputs": [],
      "stateMutability": "payable",
      "type": "function"
    },
    {
      "inputs": [
        {
          "components": [
            {
              "components": [
                {
                  "internalType": "uint32",
                  "name": "srcEid",
                  "type": "uint32"
                },
                {
                  "internalType": "bytes32",
                  "name": "sender",
                  "type": "bytes32"
                },
                {
                  "internalType": "uint64",
                  "name": "nonce",
                  "type": "uint64"
                }
              ],
              "internalType": "struct Origin",
              "name": "origin",
              "type": "tuple"
            },
            {
              "internalType": "uint32",
              "name": "dstEid",
              "type": "uint32"
            },
            {
              "internalType": "address",
              "name": "receiver",
              "type": "address"
            },
            {
              "internalType": "bytes32",
              "name": "guid",
              "type": "bytes32"
            },
            {
              "internalType": "uint256",
              "name": "value",
              "type": "uint256"
            },
            {
              "internalType": "address",
              "name": "executor",
              "type": "address"
            },
            {
              "internalType": "bytes",
              "name": "message",
              "type": "bytes"
            },
            {
              "internalType": "bytes",
              "name": "extraData",
              "type": "bytes"
            }
          ],
          "internalType": "struct InboundPacket[]",
          "name": "_packets",
          "type": "tuple[]"
        }
      ],
      "name": "lzReceiveAndRevert",
      "outputs": [],
      "stateMutability": "payable",
      "type": "function"
    },
    {
      "inputs": [
        {
          "components": [
            {
              "internalType": "uint32",
              "name": "srcEid",
              "type": "uint32"
            },
            {
              "internalType": "bytes32",
              "name": "sender",
              "type": "bytes32"
            },
            {
              "internalType": "uint64",
              "name": "nonce",
              "type": "uint64"
            }
          ],
          "internalType": "struct Origin",
          "name": "_origin",
          "type": "tuple"
        },
        {
          "internalType": "bytes32",
          "name": "_guid",
          "type": "bytes32"
        },
        {
          "internalType": "bytes",
          "name": "_message",
          "type": "bytes"
        },
        {
          "internalType": "address",
          "name": "_executor",
          "type": "address"
        },
        {
          "internalType": "bytes",
          "name": "_extraData",
          "type": "bytes"
        }
      ],
      "name": "lzReceiveSimulate",
      "outputs": [],
      "stateMutability": "payable",
      "type": "function"
    },
    {
      "inputs": [],
      "name": "msgInspector",
      "outputs": [
        {
          "internalType": "address",
          "name": "",
          "type": "address"
        }
      ],
      "stateMutability": "view",
      "type": "function"
    },
    {
      "inputs": [
        {
          "internalType": "uint32",
          "name": "",
          "type": "uint32"
        },
        {
          "internalType": "bytes32",
          "name": "",
          "type": "bytes32"
        }
      ],
      "name": "nextNonce",
      "outputs": [
        {
          "internalType": "uint64",
          "name": "nonce",
          "type": "uint64"
        }
      ],
      "stateMutability": "view",
      "type": "function"
    },
    {
      "inputs": [],
      "name": "oApp",
      "outputs": [
        {
          "internalType": "address",
          "name": "",
          "type": "address"
        }
      ],
      "stateMutability": "view",
      "type": "function"
    },
    {
      "inputs": [],
      "name": "oAppVersion",
      "outputs": [
        {
          "internalType": "uint64",
          "name": "senderVersion",
          "type": "uint64"
        },
        {
          "internalType": "uint64",
          "name": "receiverVersion",
          "type": "uint64"
        }
      ],
      "stateMutability": "pure",
      "type": "function"
    },
    {
      "inputs": [],
      "name": "oftVersion",
      "outputs": [
        {
          "internalType": "bytes4",
          "name": "interfaceId",
          "type": "bytes4"
        },
        {
          "internalType": "uint64",
          "name": "version",
          "type": "uint64"
        }
      ],
      "stateMutability": "pure",
      "type": "function"
    },
    {
      "inputs": [],
      "name": "owner",
      "outputs": [
        {
          "internalType": "address",
          "name": "",
          "type": "address"
        }
      ],
      "stateMutability": "view",
      "type": "function"
    },
    {
      "inputs": [],
      "name": "pause",
      "outputs": [],
      "stateMutability": "nonpayable",
      "type": "function"
    },
    {
      "inputs": [],
      "name": "paused",
      "outputs": [
        {
          "internalType": "bool",
          "name": "",
          "type": "bool"
        }
      ],
      "stateMutability": "view",
      "type": "function"
    },
    {
      "inputs": [
        {
          "internalType": "uint32",
          "name": "eid",
          "type": "uint32"
        }
      ],
      "name": "peers",
      "outputs": [
        {
          "internalType": "bytes32",
          "name": "peer",
          "type": "bytes32"
        }
      ],
      "stateMutability": "view",
      "type": "function"
    },
    {
      "inputs": [],
      "name": "preCrime",
      "outputs": [
        {
          "internalType": "address",
          "name": "",
          "type": "address"
        }
      ],
      "stateMutability": "view",
      "type": "function"
    },
    {
      "inputs": [
        {
          "components": [
            {
              "internalType": "uint32",
              "name": "dstEid",
              "type": "uint32"
            },
            {
              "internalType": "bytes32",
              "name": "to",
              "type": "bytes32"
            },
            {
              "internalType": "uint256",
              "name": "amountLD",
              "type": "uint256"
            },
            {
              "internalType": "uint256",
              "name": "minAmountLD",
              "type": "uint256"
            },
            {
              "internalType": "bytes",
              "name": "extraOptions",
              "type": "bytes"
            },
            {
              "internalType": "bytes",
              "name": "composeMsg",
              "type": "bytes"
            },
            {
              "internalType": "bytes",
              "name": "oftCmd",
              "type": "bytes"
            }
          ],
          "internalType": "struct SendParam",
          "name": "_sendParam",
          "type": "tuple"
        }
      ],
      "name": "quoteOFT",
      "outputs": [
        {
          "components": [
            {
              "internalType": "uint256",
              "name": "minAmountLD",
              "type": "uint256"
            },
            {
              "internalType": "uint256",
              "name": "maxAmountLD",
              "type": "uint256"
            }
          ],
          "internalType": "struct OFTLimit",
          "name": "oftLimit",
          "type": "tuple"
        },
        {
          "components": [
            {
              "internalType": "int256",
              "name": "feeAmountLD",
              "type": "int256"
            },
            {
              "internalType": "string",
              "name": "description",
              "type": "string"
            }
          ],
          "internalType": "struct OFTFeeDetail[]",
          "name": "oftFeeDetails",
          "type": "tuple[]"
        },
        {
          "components": [
            {
              "internalType": "uint256",
              "name": "amountSentLD",
              "type": "uint256"
            },
            {
              "internalType": "uint256",
              "name": "amountReceivedLD",
              "type": "uint256"
            }
          ],
          "internalType": "struct OFTReceipt",
          "name": "oftReceipt",
          "type": "tuple"
        }
      ],
      "stateMutability": "view",
      "type": "function"
    },
    {
      "inputs": [
        {
          "components": [
            {
              "internalType": "uint32",
              "name": "dstEid",
              "type": "uint32"
            },
            {
              "internalType": "bytes32",
              "name": "to",
              "type": "bytes32"
            },
            {
              "internalType": "uint256",
              "name": "amountLD",
              "type": "uint256"
            },
            {
              "internalType": "uint256",
              "name": "minAmountLD",
              "type": "uint256"
            },
            {
              "internalType": "bytes",
              "name": "extraOptions",
              "type": "bytes"
            },
            {
              "internalType": "bytes",
              "name": "composeMsg",
              "type": "bytes"
            },
            {
              "internalType": "bytes",
              "name": "oftCmd",
              "type": "bytes"
            }
          ],
          "internalType": "struct SendParam",
          "name": "_sendParam",
          "type": "tuple"
        },
        {
          "internalType": "bool",
          "name": "_payInLzToken",
          "type": "bool"
        }
      ],
      "name": "quoteSend",
      "outputs": [
        {
          "components": [
            {
              "internalType": "uint256",
              "name": "nativeFee",
              "type": "uint256"
            },
            {
              "internalType": "uint256",
              "name": "lzTokenFee",
              "type": "uint256"
            }
          ],
          "internalType": "struct MessagingFee",
          "name": "msgFee",
          "type": "tuple"
        }
      ],
      "stateMutability": "view",
      "type": "function"
    },
    {
      "inputs": [
        {
          "internalType": "uint32",
          "name": "dstEid",
          "type": "uint32"
        }
      ],
      "name": "rateLimits",
      "outputs": [
        {
          "internalType": "uint256",
          "name": "amountInFlight",
          "type": "uint256"
        },
        {
          "internalType": "uint256",
          "name": "lastUpdated",
          "type": "uint256"
        },
        {
          "internalType": "uint256",
          "name": "limit",
          "type": "uint256"
        },
        {
          "internalType": "uint256",
          "name": "window",
          "type": "uint256"
        }
      ],
      "stateMutability": "view",
      "type": "function"
    },
    {
      "inputs": [
        {
          "internalType": "address",
          "name": "token_",
          "type": "address"
        },
        {
          "internalType": "address",
          "name": "to",
          "type": "address"
        },
        {
          "internalType": "uint256",
          "name": "amount",
          "type": "uint256"
        }
      ],
      "name": "recoverStuckTokens",
      "outputs": [],
      "stateMutability": "nonpayable",
      "type": "function"
    },
    {
      "inputs": [],
      "name": "renounceOwnership",
      "outputs": [],
      "stateMutability": "nonpayable",
      "type": "function"
    },
    {
      "inputs": [
        {
          "components": [
            {
              "internalType": "uint32",
              "name": "dstEid",
              "type": "uint32"
            },
            {
              "internalType": "bytes32",
              "name": "to",
              "type": "bytes32"
            },
            {
              "internalType": "uint256",
              "name": "amountLD",
              "type": "uint256"
            },
            {
              "internalType": "uint256",
              "name": "minAmountLD",
              "type": "uint256"
            },
            {
              "internalType": "bytes",
              "name": "extraOptions",
              "type": "bytes"
            },
            {
              "internalType": "bytes",
              "name": "composeMsg",
              "type": "bytes"
            },
            {
              "internalType": "bytes",
              "name": "oftCmd",
              "type": "bytes"
            }
          ],
          "internalType": "struct SendParam",
          "name": "_sendParam",
          "type": "tuple"
        },
        {
          "components": [
            {
              "internalType": "uint256",
              "name": "nativeFee",
              "type": "uint256"
            },
            {
              "internalType": "uint256",
              "name": "lzTokenFee",
              "type": "uint256"
            }
          ],
          "internalType": "struct MessagingFee",
          "name": "_fee",
          "type": "tuple"
        },
        {
          "internalType": "address",
          "name": "_refundAddress",
          "type": "address"
        }
      ],
      "name": "send",
      "outputs": [
        {
          "components": [
            {
              "internalType": "bytes32",
              "name": "guid",
              "type": "bytes32"
            },
            {
              "internalType": "uint64",
              "name": "nonce",
              "type": "uint64"
            },
            {
              "components": [
                {
                  "internalType": "uint256",
                  "name": "nativeFee",
                  "type": "uint256"
                },
                {
                  "internalType": "uint256",
                  "name": "lzTokenFee",
                  "type": "uint256"
                }
              ],
              "internalType": "struct MessagingFee",
              "name": "fee",
              "type": "tuple"
            }
          ],
          "internalType": "struct MessagingReceipt",
          "name": "msgReceipt",
          "type": "tuple"
        },
        {
          "components": [
            {
              "internalType": "uint256",
              "name": "amountSentLD",
              "type": "uint256"
            },
            {
              "internalType": "uint256",
              "name": "amountReceivedLD",
              "type": "uint256"
            }
          ],
          "internalType": "struct OFTReceipt",
          "name": "oftReceipt",
          "type": "tuple"
        }
      ],
      "stateMutability": "payable",
      "type": "function"
    },
    {
      "inputs": [
        {
          "internalType": "uint256",
          "name": "newCap",
          "type": "uint256"
        }
      ],
      "name": "setBridgeCap",
      "outputs": [],
      "stateMutability": "nonpayable",
      "type": "function"
    },
    {
      "inputs": [
        {
          "internalType": "address",
          "name": "_delegate",
          "type": "address"
        }
      ],
      "name": "setDelegate",
      "outputs": [],
      "stateMutability": "nonpayable",
      "type": "function"
    },
    {
      "inputs": [
        {
          "components": [
            {
              "internalType": "uint32",
              "name": "eid",
              "type": "uint32"
            },
            {
              "internalType": "uint16",
              "name": "msgType",
              "type": "uint16"
            },
            {
              "internalType": "bytes",
              "name": "options",
              "type": "bytes"
            }
          ],
          "internalType": "struct EnforcedOptionParam[]",
          "name": "_enforcedOptions",
          "type": "tuple[]"
        }
      ],
      "name": "setEnforcedOptions",
      "outputs": [],
      "stateMutability": "nonpayable",
      "type": "function"
    },
    {
      "inputs": [
        {
          "internalType": "address",
          "name": "_msgInspector",
          "type": "address"
        }
      ],
      "name": "setMsgInspector",
      "outputs": [],
      "stateMutability": "nonpayable",
      "type": "function"
    },
    {
      "inputs": [
        {
          "internalType": "uint32",
          "name": "_eid",
          "type": "uint32"
        },
        {
          "internalType": "bytes32",
          "name": "_peer",
          "type": "bytes32"
        }
      ],
      "name": "setPeer",
      "outputs": [],
      "stateMutability": "nonpayable",
      "type": "function"
    },
    {
      "inputs": [
        {
          "internalType": "address",
          "name": "_preCrime",
          "type": "address"
        }
      ],
      "name": "setPreCrime",
      "outputs": [],
      "stateMutability": "nonpayable",
      "type": "function"
    },
    {
      "inputs": [
        {
          "components": [
            {
              "internalType": "uint32",
              "name": "dstEid",
              "type": "uint32"
            },
            {
              "internalType": "uint256",
              "name": "limit",
              "type": "uint256"
            },
            {
              "internalType": "uint256",
              "name": "window",
              "type": "uint256"
            }
          ],
          "internalType": "struct RateLimiter.RateLimitConfig[]",
          "name": "rateLimitConfigs",
          "type": "tuple[]"
        }
      ],
      "name": "setRateLimits",
      "outputs": [],
      "stateMutability": "nonpayable",
      "type": "function"
    },
    {
      "inputs": [],
      "name": "sharedDecimals",
      "outputs": [
        {
          "internalType": "uint8",
          "name": "",
          "type": "uint8"
        }
      ],
      "stateMutability": "pure",
      "type": "function"
    },
    {
      "inputs": [],
      "name": "token",
      "outputs": [
        {
          "internalType": "address",
          "name": "",
          "type": "address"
        }
      ],
      "stateMutability": "view",
      "type": "function"
    },
    {
      "inputs": [
        {
          "internalType": "address",
          "name": "newOwner",
          "type": "address"
        }
      ],
      "name": "transferOwnership",
      "outputs": [],
      "stateMutability": "nonpayable",
      "type": "function"
    },
    {
      "inputs": [],
      "name": "unpause",
      "outputs": [],
      "stateMutability": "nonpayable",
      "type": "function"
    }
  ],
  "transactionHash": "0xaa76190cb2a2d6d5aaa438b66357c5eaf8e134fe619133d5b594e2ba01d4be2e",
  "args": [
    "0x7760e4606F47F86395B8b062a3d0820698B13159",
    "0x6EDCE65403992e310A62460808c4b910D972f10f",
    "0xeF519A9DC8e62765B72ad9e22B26Aeb3e4ae5494",
    "2000000000000000000000000"
  ],
  "numDeployments": 1,
  "solcInputHash": "31482e18f3fdb7b0ec3b332a0e58bd30",
  "bytecode": "0x60e06040523480156200001157600080fd5b5060405162003dff38038062003dff8339810160408190526200003491620003ca565b6200003f846200025b565b6200004a846200025b565b33826001600160a01b031663313ce5676040518163ffffffff1660e01b8152600401602060405180830381865afa1580156200008a573d6000803e3d6000fd5b505050506040513d601f19601f82011682018060405250810190620000b091906200041c565b828281818181620000c13362000289565b6001600160a01b038083166080528116620000ef57604051632d618d8160e21b815260040160405180910390fd5b60805160405163ca5eb5e160e01b81526001600160a01b0383811660048301529091169063ca5eb5e190602401600060405180830381600087803b1580156200013757600080fd5b505af11580156200014c573d6000803e3d6000fd5b505050505050505062000164620002d960201b60201c565b60ff168360ff1610156200018b576040516301e9714b60e41b815260040160405180910390fd5b620001986006846200045e565b620001a590600a6200057d565b60a0525050506001600160a01b0392831660c05250506006805460ff191690558216620001e55760405163d92e233d60e01b815260040160405180910390fd5b806000036200020757604051637a4a012360e01b815260040160405180910390fd5b6200021282620002de565b60078190556040805160008152602081018390527f9fe1796ff5755072ab89cebc3c428543593b6196337d54b044d7e2c721c1d27c910160405180910390a1505050506200058e565b60006001600160a01b038216620002855760405163d92e233d60e01b815260040160405180910390fd5b5090565b600080546001600160a01b038381166001600160a01b0319831681178455604051919092169283917f8be0079c531659141344cd1fd0a4f28419497f9722a3daafe3b4186f6b6457e09190a35050565b600690565b620002e86200034c565b60805160405163ca5eb5e160e01b81526001600160a01b0383811660048301529091169063ca5eb5e190602401600060405180830381600087803b1580156200033057600080fd5b505af115801562000345573d6000803e3d6000fd5b5050505050565b6000546001600160a01b03163314620003ab5760405162461bcd60e51b815260206004820181905260248201527f4f776e61626c653a2063616c6c6572206973206e6f7420746865206f776e6572604482015260640160405180910390fd5b565b80516001600160a01b0381168114620003c557600080fd5b919050565b60008060008060808587031215620003e157600080fd5b620003ec85620003ad565b9350620003fc60208601620003ad565b92506200040c60408601620003ad565b6060959095015193969295505050565b6000602082840312156200042f57600080fd5b815160ff811681146200044157600080fd5b9392505050565b634e487b7160e01b600052601160045260246000fd5b60ff82811682821603908111156200047a576200047a62000448565b92915050565b600181815b80851115620004c1578160001904821115620004a557620004a562000448565b80851615620004b357918102915b93841c939080029062000485565b509250929050565b600082620004da575060016200047a565b81620004e9575060006200047a565b81600181146200050257600281146200050d576200052d565b60019150506200047a565b60ff84111562000521576200052162000448565b50506001821b6200047a565b5060208310610133831016604e8410600b841016171562000552575081810a6200047a565b6200055e838362000480565b806000190482111562000575576200057562000448565b029392505050565b60006200044160ff841683620004c9565b60805160a05160c0516137e66200061960003960008181610898015281816111af01528181611f2f015261232e01526000818161063201528181611e3101528181611ead0152611fdb01526000818161051f01528181610a6f01528181611321015281816115c10152818161187401528181612389015281816124da015261259301526137e66000f3fe60806040526004361061027d5760003560e01c806382413eac1161014f578063bc7a6291116100c1578063d045a0dc1161007a578063d045a0dc14610820578063d424388514610833578063e86fc7b014610853578063f2fde38b14610869578063fc0c546a14610889578063ff7bd03d146108bc57600080fd5b8063bc7a629114610757578063bd815db014610777578063bfa883ab1461078a578063c272198d146107aa578063c7c7f5b3146107df578063ca5eb5e11461080057600080fd5b80639f68b964116101135780639f68b96414610654578063ab99095d14610668578063b731ea0a146106ca578063b98bd070146106ea578063bb0b6a531461070a578063bc70b3541461073757600080fd5b806382413eac146105b15780638456cb59146105d1578063857749b0146105e65780638da5cb5b14610602578063963efcaa1461062057600080fd5b8063370dad80116101f35780635a0dfe4d116101ac5780635a0dfe4d146104ae5780635c975abb146104f55780635e280f111461050d5780636fc1b31e14610541578063715018a6146105615780637d25a05e1461057657600080fd5b8063370dad80146103f75780633b6f743b1461040c5780633f4ba83a1461043957806346f943e91461044e57806352ae28791461046e5780635535d4611461048157600080fd5b8063134d4f2511610245578063134d4f251461033c57806313ee8f6214610364578063156a0d0f1461037957806317442b70146103a05780631f5e1334146103c25780633400288b146103d757600080fd5b806309077c09146102825780630cd23325146102ab5780630d35b415146102c0578063111ecdad146102ef57806313137d6514610327575b600080fd5b34801561028e57600080fd5b5061029860075481565b6040519081526020015b60405180910390f35b3480156102b757600080fd5b50600754610298565b3480156102cc57600080fd5b506102e06102db366004612780565b6108dc565b6040516102a293929190612804565b3480156102fb57600080fd5b5060045461030f906001600160a01b031681565b6040516001600160a01b0390911681526020016102a2565b61033a61033536600461290c565b610a6d565b005b34801561034857600080fd5b50610351600281565b60405161ffff90911681526020016102a2565b34801561037057600080fd5b50600854610298565b34801561038557600080fd5b506040805162b9270b60e21b815260016020820152016102a2565b3480156103ac57600080fd5b50604080516001815260026020820152016102a2565b3480156103ce57600080fd5b50610351600181565b3480156103e357600080fd5b5061033a6103f23660046129c4565b610b2d565b34801561040357600080fd5b50610298610b43565b34801561041857600080fd5b5061042c6104273660046129fc565b610b5a565b6040516102a29190612a4d565b34801561044557600080fd5b5061033a610bc3565b34801561045a57600080fd5b5061033a610469366004612a64565b610bd5565b34801561047a57600080fd5b503061030f565b34801561048d57600080fd5b506104a161049c366004612aea565b610c38565b6040516102a29190612b1d565b3480156104ba57600080fd5b506104e56104c93660046129c4565b63ffffffff919091166000908152600160205260409020541490565b60405190151581526020016102a2565b34801561050157600080fd5b5060065460ff166104e5565b34801561051957600080fd5b5061030f7f000000000000000000000000000000000000000000000000000000000000000081565b34801561054d57600080fd5b5061033a61055c366004612b30565b610cdd565b34801561056d57600080fd5b5061033a610d3a565b34801561058257600080fd5b506105996105913660046129c4565b600092915050565b6040516001600160401b0390911681526020016102a2565b3480156105bd57600080fd5b506104e56105cc366004612b4d565b610d4c565b3480156105dd57600080fd5b5061033a610d61565b3480156105f257600080fd5b50604051600681526020016102a2565b34801561060e57600080fd5b506000546001600160a01b031661030f565b34801561062c57600080fd5b506102987f000000000000000000000000000000000000000000000000000000000000000081565b34801561066057600080fd5b5060016104e5565b34801561067457600080fd5b506106aa610683366004612bb3565b60056020526000908152604090208054600182015460028301546003909301549192909184565b6040805194855260208501939093529183015260608201526080016102a2565b3480156106d657600080fd5b5060025461030f906001600160a01b031681565b3480156106f657600080fd5b5061033a610705366004612c12565b610d71565b34801561071657600080fd5b50610298610725366004612bb3565b60016020526000908152604090205481565b34801561074357600080fd5b506104a1610752366004612c53565b610d8b565b34801561076357600080fd5b5061033a610772366004612cb3565b610f33565b61033a610785366004612c12565b610fd3565b34801561079657600080fd5b5061033a6107a5366004612ccc565b61115d565b3480156107b657600080fd5b506107ca6107c5366004612bb3565b611265565b604080519283526020830191909152016102a2565b6107f26107ed366004612d0d565b6112c6565b6040516102a2929190612d7a565b34801561080c57600080fd5b5061033a61081b366004612b30565b6112fa565b61033a61082e36600461290c565b611380565b34801561083f57600080fd5b5061033a61084e366004612b30565b6113af565b34801561085f57600080fd5b5061029860085481565b34801561087557600080fd5b5061033a610884366004612b30565b611405565b34801561089557600080fd5b507f000000000000000000000000000000000000000000000000000000000000000061030f565b3480156108c857600080fd5b506104e56108d7366004612dcc565b61147e565b6040805180820190915260008082526020820152606061090f604051806040016040528060008152602001600081525090565b600080306001600160a01b031663fc0c546a6040518163ffffffff1660e01b8152600401602060405180830381865afa158015610950573d6000803e3d6000fd5b505050506040513d601f19601f820116820180604052508101906109749190612de8565b6001600160a01b03166318160ddd6040518163ffffffff1660e01b8152600401602060405180830381865afa1580156109b1573d6000803e3d6000fd5b505050506040513d601f19601f820116820180604052508101906109d59190612e05565b60408051808201825284815260208082018490528251600080825291810190935290975091925090610a2a565b604080518082019091526000815260606020820152815260200190600190039081610a025790505b509350600080610a4f604089013560608a0135610a4a60208c018c612bb3565b6114b4565b60408051808201909152918252602082015296989597505050505050565b7f00000000000000000000000000000000000000000000000000000000000000006001600160a01b03163314610abd576040516391ac5e4f60e01b81523360048201526024015b60405180910390fd5b60208701803590610ad790610ad2908a612bb3565b6114f0565b14610b1557610ae96020880188612bb3565b60405163309afaf360e21b815263ffffffff909116600482015260208801356024820152604401610ab4565b610b248787878787878761152c565b50505050505050565b610b35611693565b610b3f82826116ed565b5050565b6000600854600754610b559190612e4a565b905090565b60408051808201909152600080825260208201526000610b8a60408501356060860135610a4a6020880188612bb3565b915050600080610b9a868461173b565b9092509050610bb7610baf6020880188612bb3565b83838861185e565b93505050505b92915050565b610bcb611693565b610bd361193f565b565b610bdd611693565b610b3f8282808060200260200160405190810160405280939291908181526020016000905b82821015610c2e57610c1f60608302860136819003810190612ed7565b81526020019060010190610c02565b5050505050611991565b600360209081526000928352604080842090915290825290208054610c5c90612f1a565b80601f0160208091040260200160405190810160405280929190818152602001828054610c8890612f1a565b8015610cd55780601f10610caa57610100808354040283529160200191610cd5565b820191906000526020600020905b815481529060010190602001808311610cb857829003601f168201915b505050505081565b610ce5611693565b600480546001600160a01b0319166001600160a01b0383169081179091556040519081527ff0be4f1e87349231d80c36b33f9e8639658eeaf474014dee15a3e6a4d4414197906020015b60405180910390a150565b610d42611693565b610bd36000611a8a565b6001600160a01b03811630145b949350505050565b610d69611693565b610bd3611ada565b610d79611693565b610b3f610d868284612f75565b611b17565b63ffffffff8416600090815260036020908152604080832061ffff87168452909152812080546060929190610dbf90612f1a565b80601f0160208091040260200160405190810160405280929190818152602001828054610deb90612f1a565b8015610e385780601f10610e0d57610100808354040283529160200191610e38565b820191906000526020600020905b815481529060010190602001808311610e1b57829003601f168201915b505050505090508051600003610e885783838080601f016020809104026020016040519081016040528093929190818152602001838380828437600092019190915250929450610d599350505050565b6000839003610e98579050610d59565b60028310610f1657610edf84848080601f016020809104026020016040519081016040528093929190818152602001838380828437600092019190915250611c1e92505050565b80610eed846002818861308a565b604051602001610eff939291906130b4565b604051602081830303815290604052915050610d59565b8383604051639a6d49cd60e01b8152600401610ab4929190613105565b610f3b611693565b80600003610f5c57604051637a4a012360e01b815260040160405180910390fd5b600854811015610f8d5760085460405163013cfea560e21b8152610ab4918391600401918252602082015260400190565b600780549082905560408051828152602081018490527f9fe1796ff5755072ab89cebc3c428543593b6196337d54b044d7e2c721c1d27c91015b60405180910390a15050565b60005b818110156110dc5736838383818110610ff157610ff1613119565b9050602002810190611003919061312f565b90506110366110156020830183612bb3565b602083013563ffffffff919091166000908152600160205260409020541490565b61104057506110d4565b3063d045a0dc60c08301358360a081013561105f610100830183613150565b611070610100890160e08a01612b30565b61107e6101208a018a613150565b6040518963ffffffff1660e01b81526004016110a097969594939291906131ab565b6000604051808303818588803b1580156110b957600080fd5b505af11580156110cd573d6000803e3d6000fd5b5050505050505b600101610fd6565b50336001600160a01b0316638e9e70996040518163ffffffff1660e01b8152600401600060405180830381865afa15801561111b573d6000803e3d6000fd5b505050506040513d6000823e601f3d908101601f191682016040526111439190810190613231565b604051638351eea760e01b8152600401610ab49190612b1d565b611165611693565b6001600160a01b03821661118c5760405163d92e233d60e01b815260040160405180910390fd5b806000036111ad57604051631f2a200560e01b815260040160405180910390fd5b7f00000000000000000000000000000000000000000000000000000000000000006001600160a01b0316836001600160a01b0316036111ff5760405163889667ed60e01b815260040160405180910390fd5b6112136001600160a01b0384168383611c4a565b816001600160a01b0316836001600160a01b03167f401f439d865a766757ec78675925bd67198d5e78805aa41691b34b5d6a6cbbe68360405161125891815260200190565b60405180910390a3505050565b63ffffffff81166000908152600560209081526040808320815160808101835281548082526001830154948201859052600283015493820184905260039092015460608201819052859491936112bc939291611cb2565b9250925050915091565b6112ce612721565b60408051808201909152600080825260208201526112ed858585611d32565b915091505b935093915050565b611302611693565b60405163ca5eb5e160e01b81526001600160a01b0382811660048301527f0000000000000000000000000000000000000000000000000000000000000000169063ca5eb5e190602401600060405180830381600087803b15801561136557600080fd5b505af1158015611379573d6000803e3d6000fd5b5050505050565b3330146113a05760405163029a949d60e31b815260040160405180910390fd5b610b2487878787878787610b15565b6113b7611693565b600280546001600160a01b0319166001600160a01b0383169081179091556040519081527fd48d879cef83a1c0bdda516f27b13ddb1b3f8bbac1c9e1511bb2a659c242776090602001610d2f565b61140d611693565b6001600160a01b0381166114725760405162461bcd60e51b815260206004820152602660248201527f4f776e61626c653a206e6577206f776e657220697320746865207a65726f206160448201526564647265737360d01b6064820152608401610ab4565b61147b81611a8a565b50565b60006020820180359060019083906114969086612bb3565b63ffffffff1681526020810191909152604001600020541492915050565b6000806114c085611e2d565b9150819050838110156112f2576040516371c4efed60e01b81526004810182905260248101859052604401610ab4565b63ffffffff811660009081526001602052604081205480610bbd5760405163f6ff4fb760e01b815263ffffffff84166004820152602401610ab4565b600061153e61153b8787611e64565b90565b9050600061156a826115586115538a8a611e83565b611ea6565b61156560208d018d612bb3565b611edb565b905060288611156116315760006115a761158a60608c0160408d0161329e565b61159760208d018d612bb3565b846115a28c8c611f56565b611fa1565b604051633e5ac80960e11b81529091506001600160a01b037f00000000000000000000000000000000000000000000000000000000000000001690637cb59012906115fd9086908d9060009087906004016132bb565b600060405180830381600087803b15801561161757600080fd5b505af115801561162b573d6000803e3d6000fd5b50505050505b6001600160a01b038216887fefed6d3500546b29533b128a29e3a94d70788727f0507505ac12eaf2e578fd9c61166a60208d018d612bb3565b6040805163ffffffff9092168252602082018690520160405180910390a3505050505050505050565b6000546001600160a01b03163314610bd35760405162461bcd60e51b815260206004820181905260248201527f4f776e61626c653a2063616c6c6572206973206e6f7420746865206f776e65726044820152606401610ab4565b63ffffffff8216600081815260016020908152604091829020849055815192835282018390527f238399d427b947898edb290f5ff0f9109849b1c3ba196a42e35f00c50a54b98b9101610fc7565b6060806000611798856020013561175186611fd3565b61175e60a0890189613150565b8080601f01602080910402602001604051908101604052809392919081815260200183838082843760009201919091525061202d92505050565b90935090506000816117ab5760016117ae565b60025b90506117ce6117c06020880188612bb3565b8261075260808a018a613150565b6004549093506001600160a01b031680156118545760405163043a78eb60e01b81526001600160a01b0382169063043a78eb9061181190889088906004016132f6565b602060405180830381865afa15801561182e573d6000803e3d6000fd5b505050506040513d601f19601f82011682018060405250810190611852919061331b565b505b5050509250929050565b60408051808201909152600080825260208201527f00000000000000000000000000000000000000000000000000000000000000006001600160a01b031663ddc28c586040518060a001604052808863ffffffff1681526020016118c1896114f0565b8152602001878152602001868152602001851515815250306040518363ffffffff1660e01b81526004016118f6929190613338565b6040805180830381865afa158015611912573d6000803e3d6000fd5b505050506040513d601f19601f8201168201806040525081019061193691906133e1565b95945050505050565b6119476120a7565b6006805460ff191690557f5db9ee0a495bf2e6ff9c91a7834c1ba4fdd244a5e8aa4e537bd38aeae4b073aa335b6040516001600160a01b03909116815260200160405180910390a1565b60005b8151811015611a5a576000600560008484815181106119b5576119b5613119565b60200260200101516000015163ffffffff1663ffffffff1681526020019081526020016000209050611a058383815181106119f2576119f2613119565b60200260200101516000015160006120f0565b828281518110611a1757611a17613119565b6020026020010151602001518160020181905550828281518110611a3d57611a3d613119565b602090810291909101015160400151600390910155600101611994565b507fe888347665897e637801f36c5129f510657276178c89022bc5fa0246dbc19de181604051610d2f91906133fd565b600080546001600160a01b038381166001600160a01b0319831681178455604051919092169283917f8be0079c531659141344cd1fd0a4f28419497f9722a3daafe3b4186f6b6457e09190a35050565b611ae2612166565b6006805460ff191660011790557f62e78cea01bee320cd4e420270b5ea74000d11b0c9f74754ebdbfc544b05a2586119743390565b60005b8151811015611bee57611b49828281518110611b3857611b38613119565b602002602001015160400151611c1e565b818181518110611b5b57611b5b613119565b60200260200101516040015160036000848481518110611b7d57611b7d613119565b60200260200101516000015163ffffffff1663ffffffff1681526020019081526020016000206000848481518110611bb757611bb7613119565b60200260200101516020015161ffff1661ffff1681526020019081526020016000209081611be591906134ac565b50600101611b1a565b507fbe4864a8e820971c0247f5992e2da559595f7bf076a21cb5928d443d2a13b67481604051610d2f919061356b565b600281015161ffff8116600314610b3f5781604051639a6d49cd60e01b8152600401610ab49190612b1d565b6040516001600160a01b038316602482015260448101829052611cad90849063a9059cbb60e01b906064015b60408051601f198184030181529190526020810180516001600160e01b03166001600160e01b0319909316929092179091526121ac565b505050565b60008080611cc08642612e4a565b9050838110611cd55760009250849150611d28565b600084611ce283886135f6565b611cec919061360d565b905080881115611d0557611d008189612e4a565b611d08565b60005b935083861115611d2157611d1c8487612e4a565b611d24565b60005b9250505b5094509492505050565b611d3a612721565b6040805180820190915260008082526020820152600080611d7133604089013560608a0135611d6c60208c018c612bb3565b612281565b91509150600080611d82898461173b565b9092509050611dae611d9760208b018b612bb3565b8383611da8368d90038d018d61362f565b8b612356565b60408051808201909152858152602080820186905282519298509096503391907f85496b760a4b7f8d66384b9df21b381f5d1b1e79f229a47aaf4c232edc2fe59a90611dfc908d018d612bb3565b6040805163ffffffff909216825260208201899052810187905260600160405180910390a350505050935093915050565b60007f0000000000000000000000000000000000000000000000000000000000000000611e5a818461360d565b610bbd91906135f6565b6000611e73602082848661308a565b611e7c91613661565b9392505050565b6000611e9360286020848661308a565b611e9c9161367f565b60c01c9392505050565b6000610bbd7f00000000000000000000000000000000000000000000000000000000000000006001600160401b0384166135f6565b6000611ee960065460ff1690565b15611f075760405163ab35696f60e01b815260040160405180910390fd5b8290508060086000828254611f1c9190612e4a565b90915550611e7c90506001600160a01b037f0000000000000000000000000000000000000000000000000000000000000000168583611c4a565b6060611f65826028818661308a565b8080601f016020809104026020016040519081016040528093929190818152602001838380828437600092019190915250929695505050505050565b606084848484604051602001611fba94939291906136af565b6040516020818303038152906040529050949350505050565b6000806120007f00000000000000000000000000000000000000000000000000000000000000008461360d565b90506001600160401b03811115610bbd5760405163e2ce941360e01b815260048101829052602401610ab4565b805160609015158061207657848460405160200161206292919091825260c01b6001600160c01b031916602082015260280190565b60405160208183030381529060405261209d565b8484338560405160200161208d94939291906136fe565b6040516020818303038152906040525b9150935093915050565b60065460ff16610bd35760405162461bcd60e51b815260206004820152601460248201527314185d5cd8589b194e881b9bdd081c185d5cd95960621b6044820152606401610ab4565b63ffffffff82166000908152600560205260408120805460018201546002830154600384015493949384936121289390929091611cb2565b915091508084111561214d5760405163a74c1c5f60e01b815260040160405180910390fd5b6121578483613741565b83555050426001909101555050565b60065460ff1615610bd35760405162461bcd60e51b815260206004820152601060248201526f14185d5cd8589b194e881c185d5cd95960821b6044820152606401610ab4565b6000612201826040518060400160405280602081526020017f5361666545524332303a206c6f772d6c6576656c2063616c6c206661696c6564815250856001600160a01b03166124619092919063ffffffff16565b9050805160001480612222575080806020019051810190612222919061331b565b611cad5760405162461bcd60e51b815260206004820152602a60248201527f5361666545524332303a204552433230206f7065726174696f6e20646964206e6044820152691bdd081cdd58d8d9595960b21b6064820152608401610ab4565b60008061229060065460ff1690565b156122ae5760405163ab35696f60e01b815260040160405180910390fd5b6122b98585856114b4565b6008546007549294509092506000916122d29190612e4a565b9050808311156122ff57604051630162af9d60e31b81526004810184905260248101829052604401610ab4565b61230984846120f0565b826008600082825461231b9190613741565b90915550611d2890506001600160a01b037f000000000000000000000000000000000000000000000000000000000000000016883086612470565b61235e612721565b600061236d84600001516124ae565b6020850151909150156123875761238784602001516124d6565b7f00000000000000000000000000000000000000000000000000000000000000006001600160a01b0316632637a450826040518060a001604052808b63ffffffff1681526020016123d78c6114f0565b81526020018a815260200189815260200160008960200151111515815250866040518463ffffffff1660e01b8152600401612413929190613338565b60806040518083038185885af1158015612431573d6000803e3d6000fd5b50505050506040513d601f19601f820116820180604052508101906124569190613754565b979650505050505050565b6060610d5984846000856125b8565b6040516001600160a01b03808516602483015283166044820152606481018290526124a89085906323b872dd60e01b90608401611c76565b50505050565b60008134146124d2576040516304fb820960e51b8152346004820152602401610ab4565b5090565b60007f00000000000000000000000000000000000000000000000000000000000000006001600160a01b031663e4fe1d946040518163ffffffff1660e01b8152600401602060405180830381865afa158015612536573d6000803e3d6000fd5b505050506040513d601f19601f8201168201806040525081019061255a9190612de8565b90506001600160a01b038116612583576040516329b99a9560e11b815260040160405180910390fd5b610b3f6001600160a01b038216337f000000000000000000000000000000000000000000000000000000000000000085612470565b6060824710156126195760405162461bcd60e51b815260206004820152602660248201527f416464726573733a20696e73756666696369656e742062616c616e636520666f6044820152651c8818d85b1b60d21b6064820152608401610ab4565b600080866001600160a01b03168587604051612635919061379e565b60006040518083038185875af1925050503d8060008114612672576040519150601f19603f3d011682016040523d82523d6000602084013e612677565b606091505b509150915061245687838387606083156126f25782516000036126eb576001600160a01b0385163b6126eb5760405162461bcd60e51b815260206004820152601d60248201527f416464726573733a2063616c6c20746f206e6f6e2d636f6e74726163740000006044820152606401610ab4565b5081610d59565b610d5983838151156127075781518083602001fd5b8060405162461bcd60e51b8152600401610ab49190612b1d565b60405180606001604052806000801916815260200160006001600160401b03168152602001612763604051806040016040528060008152602001600081525090565b905290565b600060e0828403121561277a57600080fd5b50919050565b60006020828403121561279257600080fd5b81356001600160401b038111156127a857600080fd5b610d5984828501612768565b60005b838110156127cf5781810151838201526020016127b7565b50506000910152565b600081518084526127f08160208601602086016127b4565b601f01601f19169290920160200192915050565b8351815260208085015190820152600060a08201604060a0604085015281865180845260c08601915060c08160051b8701019350602080890160005b8381101561287f5788870360bf1901855281518051885283015183880187905261286c878901826127d8565b9750509382019390820190600101612840565b50508751606088015250505060208501516080850152509050610d59565b60006060828403121561277a57600080fd5b60008083601f8401126128c157600080fd5b5081356001600160401b038111156128d857600080fd5b6020830191508360208285010111156128f057600080fd5b9250929050565b6001600160a01b038116811461147b57600080fd5b600080600080600080600060e0888a03121561292757600080fd5b612931898961289d565b96506060880135955060808801356001600160401b038082111561295457600080fd5b6129608b838c016128af565b909750955060a08a01359150612975826128f7565b90935060c0890135908082111561298b57600080fd5b506129988a828b016128af565b989b979a50959850939692959293505050565b803563ffffffff811681146129bf57600080fd5b919050565b600080604083850312156129d757600080fd5b6129e0836129ab565b946020939093013593505050565b801515811461147b57600080fd5b60008060408385031215612a0f57600080fd5b82356001600160401b03811115612a2557600080fd5b612a3185828601612768565b9250506020830135612a42816129ee565b809150509250929050565b815181526020808301519082015260408101610bbd565b60008060208385031215612a7757600080fd5b82356001600160401b0380821115612a8e57600080fd5b818501915085601f830112612aa257600080fd5b813581811115612ab157600080fd5b866020606083028501011115612ac657600080fd5b60209290920196919550909350505050565b803561ffff811681146129bf57600080fd5b60008060408385031215612afd57600080fd5b612b06836129ab565b9150612b1460208401612ad8565b90509250929050565b602081526000611e7c60208301846127d8565b600060208284031215612b4257600080fd5b8135611e7c816128f7565b60008060008060a08587031215612b6357600080fd5b612b6d868661289d565b935060608501356001600160401b03811115612b8857600080fd5b612b94878288016128af565b9094509250506080850135612ba8816128f7565b939692955090935050565b600060208284031215612bc557600080fd5b611e7c826129ab565b60008083601f840112612be057600080fd5b5081356001600160401b03811115612bf757600080fd5b6020830191508360208260051b85010111156128f057600080fd5b60008060208385031215612c2557600080fd5b82356001600160401b03811115612c3b57600080fd5b612c4785828601612bce565b90969095509350505050565b60008060008060608587031215612c6957600080fd5b612c72856129ab565b9350612c8060208601612ad8565b925060408501356001600160401b03811115612c9b57600080fd5b612ca7878288016128af565b95989497509550505050565b600060208284031215612cc557600080fd5b5035919050565b600080600060608486031215612ce157600080fd5b8335612cec816128f7565b92506020840135612cfc816128f7565b929592945050506040919091013590565b60008060008385036080811215612d2357600080fd5b84356001600160401b03811115612d3957600080fd5b612d4587828801612768565b9450506040601f1982011215612d5a57600080fd5b506020840191506060840135612d6f816128f7565b809150509250925092565b600060c082019050835182526001600160401b0360208501511660208301526040840151612db5604084018280518252602090810151910152565b5082516080830152602083015160a0830152611e7c565b600060608284031215612dde57600080fd5b611e7c838361289d565b600060208284031215612dfa57600080fd5b8151611e7c816128f7565b600060208284031215612e1757600080fd5b5051919050565b634e487b7160e01b600052604160045260246000fd5b634e487b7160e01b600052601160045260246000fd5b81810381811115610bbd57610bbd612e34565b604051606081016001600160401b0381118282101715612e7f57612e7f612e1e565b60405290565b604080519081016001600160401b0381118282101715612e7f57612e7f612e1e565b604051601f8201601f191681016001600160401b0381118282101715612ecf57612ecf612e1e565b604052919050565b600060608284031215612ee957600080fd5b612ef1612e5d565b612efa836129ab565b815260208301356020820152604083013560408201528091505092915050565b600181811c90821680612f2e57607f821691505b60208210810361277a57634e487b7160e01b600052602260045260246000fd5b60006001600160401b03821115612f6757612f67612e1e565b50601f01601f191660200190565b60006001600160401b0380841115612f8f57612f8f612e1e565b8360051b6020612fa0818301612ea7565b868152918501918181019036841115612fb857600080fd5b865b8481101561307e57803586811115612fd25760008081fd5b88016060368290031215612fe65760008081fd5b612fee612e5d565b612ff7826129ab565b8152613004868301612ad8565b868201526040808301358981111561301c5760008081fd5b929092019136601f8401126130315760008081fd5b823561304461303f82612f4e565b612ea7565b81815236898387010111156130595760008081fd5b818986018a830137600091810189019190915290820152845250918301918301612fba565b50979650505050505050565b6000808585111561309a57600080fd5b838611156130a757600080fd5b5050820193919092039150565b600084516130c68184602089016127b4565b8201838582376000930192835250909392505050565b81835281816020850137506000828201602090810191909152601f909101601f19169091010190565b602081526000610d596020830184866130dc565b634e487b7160e01b600052603260045260246000fd5b6000823561013e1983360301811261314657600080fd5b9190910192915050565b6000808335601e1984360301811261316757600080fd5b8301803591506001600160401b0382111561318157600080fd5b6020019150368190038213156128f057600080fd5b6001600160401b038116811461147b57600080fd5b63ffffffff6131b9896129ab565b16815260208801356020820152600060408901356131d681613196565b6001600160401b03811660408401525087606083015260e0608083015261320160e0830187896130dc565b6001600160a01b03861660a084015282810360c08401526132238185876130dc565b9a9950505050505050505050565b60006020828403121561324357600080fd5b81516001600160401b0381111561325957600080fd5b8201601f8101841361326a57600080fd5b805161327861303f82612f4e565b81815285602083850101111561328d57600080fd5b6119368260208301602086016127b4565b6000602082840312156132b057600080fd5b8135611e7c81613196565b60018060a01b038516815283602082015261ffff831660408201526080606082015260006132ec60808301846127d8565b9695505050505050565b60408152600061330960408301856127d8565b828103602084015261193681856127d8565b60006020828403121561332d57600080fd5b8151611e7c816129ee565b6040815263ffffffff8351166040820152602083015160608201526000604084015160a0608084015261336e60e08401826127d8565b90506060850151603f198483030160a085015261338b82826127d8565b60809690960151151560c08501525050506001600160a01b039190911660209091015290565b6000604082840312156133c357600080fd5b6133cb612e85565b9050815181526020820151602082015292915050565b6000604082840312156133f357600080fd5b611e7c83836133b1565b602080825282518282018190526000919060409081850190868401855b8281101561344f578151805163ffffffff1685528681015187860152850151858501526060909301929085019060010161341a565b5091979650505050505050565b601f821115611cad576000816000526020600020601f850160051c810160208610156134855750805b601f850160051c820191505b818110156134a457828155600101613491565b505050505050565b81516001600160401b038111156134c5576134c5612e1e565b6134d9816134d38454612f1a565b8461345c565b602080601f83116001811461350e57600084156134f65750858301515b600019600386901b1c1916600185901b1785556134a4565b600085815260208120601f198616915b8281101561353d5788860151825594840194600190910190840161351e565b508582101561355b5787850151600019600388901b60f8161c191681555b5050505050600190811b01905550565b600060208083018184528085518083526040925060408601915060408160051b87010184880160005b838110156135e857888303603f190185528151805163ffffffff1684528781015161ffff168885015286015160608785018190526135d4818601836127d8565b968901969450505090860190600101613594565b509098975050505050505050565b8082028115828204841417610bbd57610bbd612e34565b60008261362a57634e487b7160e01b600052601260045260246000fd5b500490565b60006040828403121561364157600080fd5b613649612e85565b82358152602083013560208201528091505092915050565b80356020831015610bbd57600019602084900360031b1b1692915050565b6001600160c01b031981358181169160088510156136a75780818660080360031b1b83161692505b505092915050565b6001600160401b0360c01b8560c01b16815263ffffffff60e01b8460e01b16600882015282600c820152600082516136ee81602c8501602087016127b4565b91909101602c0195945050505050565b8481526001600160401b0360c01b8460c01b166020820152826028820152600082516137318160488501602087016127b4565b9190910160480195945050505050565b80820180821115610bbd57610bbd612e34565b60006080828403121561376657600080fd5b61376e612e5d565b82518152602083015161378081613196565b602082015261379284604085016133b1565b60408201529392505050565b600082516131468184602087016127b456fea264697066735822122026edc121af4dffb50a1921324e6ef192d82328c2c3bc9c1d6a53d0811e414de164736f6c63430008160033",
  "devdoc": {
    "details": "Enforces bridge cap, rate limiting, and pause controls while preserving supply conservation across lock/mint and burn/unlock flows.",
    "events": {
      "Paused(address)": {
        "details": "Emitted when the pause is triggered by `account`."
      },
      "PreCrimeSet(address)": {
        "details": "Emitted when the preCrime contract address is set.",
        "params": {
          "preCrimeAddress": "The address of the preCrime contract."
        }
      },
      "RateLimitsChanged((uint32,uint256,uint256)[])": {
        "params": {
          "rateLimitConfigs": "An array of `RateLimitConfig` structs representing the rate limit configurations set. - `dstEid`: The destination endpoint id. - `limit`: This represents the maximum allowed amount within a given window. - `window`: Defines the duration of the rate limiting window."
        }
      },
      "Unpaused(address)": {
        "details": "Emitted when the pause is lifted by `account`."
      }
    },
    "kind": "dev",
    "methods": {
      "allowInitializePath((uint32,bytes32,uint64))": {
        "details": "This indicates to the endpoint that the OApp has enabled msgs for this particular path to be received.This defaults to assuming if a peer has been set, its initialized. Can be overridden by the OApp if there is other logic to determine this.",
        "params": {
          "origin": "The origin information containing the source endpoint and sender address."
        },
        "returns": {
          "_0": "Whether the path has been initialized."
        }
      },
      "approvalRequired()": {
        "details": "In the case of default OFTAdapter, approval is required.In non-default OFTAdapter contracts with something like mint and burn privileges, it would NOT need approval.",
        "returns": {
          "_0": "requiresApproval Needs approval of the underlying token implementation."
        }
      },
      "combineOptions(uint32,uint16,bytes)": {
        "details": "If there is an enforced lzReceive option: - {gasLimit: 200k, msg.value: 1 ether} AND a caller supplies a lzReceive option: {gasLimit: 100k, msg.value: 0.5 ether} - The resulting options will be {gasLimit: 300k, msg.value: 1.5 ether} when the message is executed on the remote lzReceive() function.This presence of duplicated options is handled off-chain in the verifier/executor.",
        "params": {
          "_eid": "The endpoint ID.",
          "_extraOptions": "Additional options passed by the caller.",
          "_msgType": "The OAPP message type."
        },
        "returns": {
          "_0": "options The combination of caller specified options AND enforced options."
        }
      },
      "constructor": {
        "details": "Owner is set through OFTAdapter/OApp constructor path and delegate is configured in-constructor to avoid an unsecured gap.",
        "params": {
          "delegate_": "Delegate allowed to manage emergency LayerZero config.",
          "initialCap_": "Initial bridge cap in local token decimals.",
          "lzEndpoint_": "LayerZero endpoint for Sepolia.",
          "token_": "Legacy token address on Sepolia."
        }
      },
      "getAmountCanBeSent(uint32)": {
        "params": {
          "_dstEid": "The destination endpoint id."
        },
        "returns": {
          "amountCanBeSent": "The amount that can be sent.",
          "currentAmountInFlight": "The current amount that was sent."
        }
      },
      "getAvailableCapacity()": {
        "returns": {
          "_0": "Available amount that can still be bridged out."
        }
      },
      "getBridgeCap()": {
        "returns": {
          "_0": "Current cap value in local decimals."
        }
      },
      "getBridgedAmount()": {
        "returns": {
          "_0": "Current bridged amount in local decimals."
        }
      },
      "isComposeMsgSender((uint32,bytes32,uint64),bytes,address)": {
        "details": "_origin The origin information containing the source endpoint and sender address.  - srcEid: The source chain endpoint ID.  - sender: The sender address on the src chain.  - nonce: The nonce of the message._message The lzReceive payload.Applications can optionally choose to implement separate composeMsg senders that are NOT the bridging layer.The default sender IS the OAppReceiver implementer.",
        "params": {
          "_sender": "The sender address."
        },
        "returns": {
          "_0": "isSender Is a valid sender."
        }
      },
      "isPeer(uint32,bytes32)": {
        "details": "Check if the peer is considered 'trusted' by the OApp.Enables OAppPreCrimeSimulator to check whether a potential Inbound Packet is from a trusted source.",
        "params": {
          "_eid": "The endpoint ID to check.",
          "_peer": "The peer to check."
        },
        "returns": {
          "_0": "Whether the peer passed is considered 'trusted' by the OApp."
        }
      },
      "lzReceive((uint32,bytes32,uint64),bytes32,bytes,address,bytes)": {
        "details": "Entry point for receiving messages or packets from the endpoint.Entry point for receiving msg/packet from the LayerZero endpoint.",
        "params": {
          "_executor": "The address of the executor for the received message.",
          "_extraData": "Additional arbitrary data provided by the corresponding executor.",
          "_guid": "The unique identifier for the received LayerZero message.",
          "_message": "The payload of the received message.",
          "_origin": "The origin information containing the source endpoint and sender address.  - srcEid: The source chain endpoint ID.  - sender: The sender address on the src chain.  - nonce: The nonce of the message."
        }
      },
      "lzReceiveAndRevert(((uint32,bytes32,uint64),uint32,address,bytes32,uint256,address,bytes,bytes)[])": {
        "details": "Interface for pre-crime simulations. Always reverts at the end with the simulation results.WARNING: MUST revert at the end with the simulation results.Gives the preCrime implementation the ability to mock sending packets to the lzReceive function, WITHOUT actually executing them.",
        "params": {
          "_packets": "An array of InboundPacket objects representing received packets to be delivered."
        }
      },
      "lzReceiveSimulate((uint32,bytes32,uint64),bytes32,bytes,address,bytes)": {
        "details": "Is effectively an internal function because msg.sender must be address(this). Allows resetting the call stack for 'internal' calls.",
        "params": {
          "_executor": "The executor address for the packet.",
          "_extraData": "Additional data for the packet.",
          "_guid": "The unique identifier of the packet.",
          "_message": "The message payload of the packet.",
          "_origin": "The origin information containing the source endpoint and sender address.  - srcEid: The source chain endpoint ID.  - sender: The sender address on the src chain.  - nonce: The nonce of the message."
        }
      },
      "nextNonce(uint32,bytes32)": {
        "details": "_srcEid The source endpoint ID._sender The sender address.The path nonce starts from 1. If 0 is returned it means that there is NO nonce ordered enforcement.Is required by the off-chain executor to determine the OApp expects msg execution is ordered.This is also enforced by the OApp.By default this is NOT enabled. ie. nextNonce is hardcoded to return 0.",
        "returns": {
          "nonce": "The next nonce."
        }
      },
      "oApp()": {
        "details": "Retrieves the address of the OApp contract.The simulator contract is the base contract for the OApp by default.If the simulator is a separate contract, override this function.",
        "returns": {
          "_0": "The address of the OApp contract."
        }
      },
      "oAppVersion()": {
        "returns": {
          "receiverVersion": "The version of the OAppReceiver.sol implementation.",
          "senderVersion": "The version of the OAppSender.sol implementation."
        }
      },
      "oftVersion()": {
        "details": "interfaceId: This specific interface ID is '0x02e49c2c'.version: Indicates a cross-chain compatible msg encoding with other OFTs.If a new feature is added to the OFT cross-chain msg encoding, the version will be incremented. ie. localOFT version(x,1) CAN send messages to remoteOFT version(x,1)",
        "returns": {
          "interfaceId": "The interface ID.",
          "version": "The version."
        }
      },
      "owner()": {
        "details": "Returns the address of the current owner."
      },
      "paused()": {
        "details": "Returns true if the contract is paused, and false otherwise."
      },
      "quoteOFT((uint32,bytes32,uint256,uint256,bytes,bytes,bytes))": {
        "params": {
          "_sendParam": "The parameters for the send operation."
        },
        "returns": {
          "oftFeeDetails": "The details of OFT fees.",
          "oftLimit": "The OFT limit information.",
          "oftReceipt": "The OFT receipt information."
        }
      },
      "quoteSend((uint32,bytes32,uint256,uint256,bytes,bytes,bytes),bool)": {
        "details": "MessagingFee: LayerZero msg fee  - nativeFee: The native fee.  - lzTokenFee: The lzToken fee.",
        "params": {
          "_payInLzToken": "Flag indicating whether the caller is paying in the LZ token.",
          "_sendParam": "The parameters for the send() operation."
        },
        "returns": {
          "msgFee": "The calculated LayerZero messaging fee from the send() operation."
        }
      },
      "recoverStuckTokens(address,address,uint256)": {
        "params": {
          "amount": "Amount to recover.",
          "to": "Recipient of recovered tokens.",
          "token_": "Token address to recover."
        }
      },
      "renounceOwnership()": {
        "details": "Leaves the contract without owner. It will not be possible to call `onlyOwner` functions. Can only be called by the current owner. NOTE: Renouncing ownership will leave the contract without an owner, thereby disabling any functionality that is only available to the owner."
      },
      "send((uint32,bytes32,uint256,uint256,bytes,bytes,bytes),(uint256,uint256),address)": {
        "details": "Executes the send operation.MessagingReceipt: LayerZero msg receipt  - guid: The unique identifier for the sent message.  - nonce: The nonce of the sent message.  - fee: The LayerZero fee incurred for the message.",
        "params": {
          "_fee": "The calculated fee for the send() operation.      - nativeFee: The native fee.      - lzTokenFee: The lzToken fee.",
          "_refundAddress": "The address to receive any excess funds.",
          "_sendParam": "The parameters for the send operation."
        },
        "returns": {
          "msgReceipt": "The receipt for the send operation.",
          "oftReceipt": "The OFT receipt information."
        }
      },
      "setBridgeCap(uint256)": {
        "params": {
          "newCap": "New bridge cap in local token decimals."
        }
      },
      "setDelegate(address)": {
        "details": "Only the owner/admin of the OApp can call this function.Provides the ability for a delegate to set configs, on behalf of the OApp, directly on the Endpoint contract.",
        "params": {
          "_delegate": "The address of the delegate to be set."
        }
      },
      "setEnforcedOptions((uint32,uint16,bytes)[])": {
        "details": "Sets the enforced options for specific endpoint and message type combinations.Only the owner/admin of the OApp can call this function.Provides a way for the OApp to enforce things like paying for PreCrime, AND/OR minimum dst lzReceive gas amounts etc.These enforced options can vary as the potential options/execution on the remote may differ as per the msgType. eg. Amount of lzReceive() gas necessary to deliver a lzCompose() message adds overhead you dont want to pay if you are only making a standard LayerZero message ie. lzReceive() WITHOUT sendCompose().",
        "params": {
          "_enforcedOptions": "An array of EnforcedOptionParam structures specifying enforced options."
        }
      },
      "setMsgInspector(address)": {
        "details": "Sets the message inspector address for the OFT.This is an optional contract that can be used to inspect both 'message' and 'options'.Set it to address(0) to disable it, or set it to a contract address to enable it.",
        "params": {
          "_msgInspector": "The address of the message inspector."
        }
      },
      "setPeer(uint32,bytes32)": {
        "details": "Only the owner/admin of the OApp can call this function.Indicates that the peer is trusted to send LayerZero messages to this OApp.Set this to bytes32(0) to remove the peer address.Peer is a bytes32 to accommodate non-evm chains.",
        "params": {
          "_eid": "The endpoint ID.",
          "_peer": "The address of the peer to be associated with the corresponding endpoint."
        }
      },
      "setPreCrime(address)": {
        "details": "Sets the preCrime contract address.",
        "params": {
          "_preCrime": "The address of the preCrime contract."
        }
      },
      "setRateLimits((uint32,uint256,uint256)[])": {
        "details": "Each config entry sets destination eid, token limit, and window size in seconds.",
        "params": {
          "rateLimitConfigs": "Array of destination rate limit configurations."
        }
      },
      "sharedDecimals()": {
        "details": "18 local decimals and 6 shared decimals imply a 1e12 conversion factor; 10M total supply remains far below uint64 shared-units max.",
        "returns": {
          "_0": "Shared decimal count for cross-chain amount normalization."
        }
      },
      "token()": {
        "details": "Retrieves the address of the underlying ERC20 implementation.In the case of OFTAdapter, address(this) and erc20 are NOT the same contract.",
        "returns": {
          "_0": "The address of the adapted ERC-20 token."
        }
      },
      "transferOwnership(address)": {
        "details": "Transfers ownership of the contract to a new account (`newOwner`). Can only be called by the current owner."
      }
    },
    "stateVariables": {
      "bridgeCap": {
        "details": "Risk control to cap lockbox exposure."
      },
      "bridgedAmount": {
        "details": "Increased on outbound debit and decreased on inbound credit.uint256 is used to match ERC20 18-decimal amount math and OFT/RateLimiter amount types, avoiding casts and preserving full-range accounting."
      }
    },
    "version": 1
  },
  "userdoc": {
    "errors": {
      "RateLimitExceeded()": [
        {
          "notice": "Error that is thrown when an amount exceeds the rate_limit."
        }
      ]
    },
    "events": {
      "RateLimitsChanged((uint32,uint256,uint256)[])": {
        "notice": "Emitted when _setRateLimits occurs."
      }
    },
    "kind": "user",
    "methods": {
      "allowInitializePath((uint32,bytes32,uint64))": {
        "notice": "Checks if the path initialization is allowed based on the provided origin."
      },
      "approvalRequired()": {
        "notice": "Indicates whether the OFT contract requires approval of the 'token()' to send."
      },
      "bridgeCap()": {
        "notice": "Maximum amount of LGT (18 decimals) that can be locked in this adapter."
      },
      "bridgedAmount()": {
        "notice": "Net amount currently bridged out and locked by this adapter."
      },
      "combineOptions(uint32,uint16,bytes)": {
        "notice": "Combines options for a given endpoint and message type."
      },
      "constructor": {
        "notice": "Deploys the adapter and configures the initial bridge cap and delegate."
      },
      "endpoint()": {
        "notice": "Retrieves the LayerZero endpoint associated with the OApp."
      },
      "getAmountCanBeSent(uint32)": {
        "notice": "Get the current amount that can be sent to this destination endpoint id for the given rate limit window."
      },
      "getAvailableCapacity()": {
        "notice": "Returns remaining bridge capacity."
      },
      "getBridgeCap()": {
        "notice": "Returns the configured bridge cap."
      },
      "getBridgedAmount()": {
        "notice": "Returns the amount currently bridged out and locked."
      },
      "isComposeMsgSender((uint32,bytes32,uint64),bytes,address)": {
        "notice": "Indicates whether an address is an approved composeMsg sender to the Endpoint."
      },
      "nextNonce(uint32,bytes32)": {
        "notice": "Retrieves the next nonce for a given source endpoint and sender address."
      },
      "oAppVersion()": {
        "notice": "Retrieves the OApp version information."
      },
      "oftVersion()": {
        "notice": "Retrieves interfaceID and the version of the OFT."
      },
      "pause()": {
        "notice": "Pauses bridge debit/credit execution."
      },
      "peers(uint32)": {
        "notice": "Retrieves the peer (OApp) associated with a corresponding endpoint."
      },
      "quoteOFT((uint32,bytes32,uint256,uint256,bytes,bytes,bytes))": {
        "notice": "Provides the fee breakdown and settings data for an OFT. Unused in the default implementation."
      },
      "quoteSend((uint32,bytes32,uint256,uint256,bytes,bytes,bytes),bool)": {
        "notice": "Provides a quote for the send() operation."
      },
      "recoverStuckTokens(address,address,uint256)": {
        "notice": "Recovers non-bridge tokens accidentally sent to this contract."
      },
      "setBridgeCap(uint256)": {
        "notice": "Updates the maximum bridgeable locked amount."
      },
      "setDelegate(address)": {
        "notice": "Sets the delegate address for the OApp."
      },
      "setPeer(uint32,bytes32)": {
        "notice": "Sets the peer address (OApp instance) for a corresponding endpoint."
      },
      "setRateLimits((uint32,uint256,uint256)[])": {
        "notice": "Sets per-destination rate limits for outbound sends."
      },
      "sharedDecimals()": {
        "notice": "Returns mesh-wide shared decimals used for LayerZero OFT normalization."
      },
      "unpause()": {
        "notice": "Unpauses bridge debit/credit execution."
      }
    },
    "notice": "Sepolia lockbox adapter for LegacyToken; this is the only adapter in the mesh and the sole canonical lockbox.",
    "version": 1
  },
  "storageLayout": {
    "storage": [
      {
        "astId": 4117,
        "contract": "contracts/bridge/LegacyTokenOFTAdapter.sol:LegacyTokenOFTAdapter",
        "label": "_owner",
        "offset": 0,
        "slot": "0",
        "type": "t_address"
      },
      {
        "astId": 1642,
        "contract": "contracts/bridge/LegacyTokenOFTAdapter.sol:LegacyTokenOFTAdapter",
        "label": "peers",
        "offset": 0,
        "slot": "1",
        "type": "t_mapping(t_uint32,t_bytes32)"
      },
      {
        "astId": 2418,
        "contract": "contracts/bridge/LegacyTokenOFTAdapter.sol:LegacyTokenOFTAdapter",
        "label": "preCrime",
        "offset": 0,
        "slot": "2",
        "type": "t_address"
      },
      {
        "astId": 2258,
        "contract": "contracts/bridge/LegacyTokenOFTAdapter.sol:LegacyTokenOFTAdapter",
        "label": "enforcedOptions",
        "offset": 0,
        "slot": "3",
        "type": "t_mapping(t_uint32,t_mapping(t_uint16,t_bytes_storage))"
      },
      {
        "astId": 3043,
        "contract": "contracts/bridge/LegacyTokenOFTAdapter.sol:LegacyTokenOFTAdapter",
        "label": "msgInspector",
        "offset": 0,
        "slot": "4",
        "type": "t_address"
      },
      {
        "astId": 26,
        "contract": "contracts/bridge/LegacyTokenOFTAdapter.sol:LegacyTokenOFTAdapter",
        "label": "rateLimits",
        "offset": 0,
        "slot": "5",
        "type": "t_mapping(t_uint32,t_struct(RateLimit)12_storage)"
      },
      {
        "astId": 4240,
        "contract": "contracts/bridge/LegacyTokenOFTAdapter.sol:LegacyTokenOFTAdapter",
        "label": "_paused",
        "offset": 0,
        "slot": "6",
        "type": "t_bool"
      },
      {
        "astId": 5247,
        "contract": "contracts/bridge/LegacyTokenOFTAdapter.sol:LegacyTokenOFTAdapter",
        "label": "bridgeCap",
        "offset": 0,
        "slot": "7",
        "type": "t_uint256"
      },
      {
        "astId": 5250,
        "contract": "contracts/bridge/LegacyTokenOFTAdapter.sol:LegacyTokenOFTAdapter",
        "label": "bridgedAmount",
        "offset": 0,
        "slot": "8",
        "type": "t_uint256"
      }
    ],
    "types": {
      "t_address": {
        "encoding": "inplace",
        "label": "address",
        "numberOfBytes": "20"
      },
      "t_bool": {
        "encoding": "inplace",
        "label": "bool",
        "numberOfBytes": "1"
      },
      "t_bytes32": {
        "encoding": "inplace",
        "label": "bytes32",
        "numberOfBytes": "32"
      },
      "t_bytes_storage": {
        "encoding": "bytes",
        "label": "bytes",
        "numberOfBytes": "32"
      },
      "t_mapping(t_uint16,t_bytes_storage)": {
        "encoding": "mapping",
        "key": "t_uint16",
        "label": "mapping(uint16 => bytes)",
        "numberOfBytes": "32",
        "value": "t_bytes_storage"
      },
      "t_mapping(t_uint32,t_bytes32)": {
        "encoding": "mapping",
        "key": "t_uint32",
        "label": "mapping(uint32 => bytes32)",
        "numberOfBytes": "32",
        "value": "t_bytes32"
      },
      "t_mapping(t_uint32,t_mapping(t_uint16,t_bytes_storage))": {
        "encoding": "mapping",
        "key": "t_uint32",
        "label": "mapping(uint32 => mapping(uint16 => bytes))",
        "numberOfBytes": "32",
        "value": "t_mapping(t_uint16,t_bytes_storage)"
      },
      "t_mapping(t_uint32,t_struct(RateLimit)12_storage)": {
        "encoding": "mapping",
        "key": "t_uint32",
        "label": "mapping(uint32 => struct RateLimiter.RateLimit)",
        "numberOfBytes": "32",
        "value": "t_struct(RateLimit)12_storage"
      },
      "t_struct(RateLimit)12_storage": {
        "encoding": "inplace",
        "label": "struct RateLimiter.RateLimit",
        "members": [
          {
            "astId": 5,
            "contract": "contracts/bridge/LegacyTokenOFTAdapter.sol:LegacyTokenOFTAdapter",
            "label": "amountInFlight",
            "offset": 0,
            "slot": "0",
            "type": "t_uint256"
          },
          {
            "astId": 7,
            "contract": "contracts/bridge/LegacyTokenOFTAdapter.sol:LegacyTokenOFTAdapter",
            "label": "lastUpdated",
            "offset": 0,
            "slot": "1",
            "type": "t_uint256"
          },
          {
            "astId": 9,
            "contract": "contracts/bridge/LegacyTokenOFTAdapter.sol:LegacyTokenOFTAdapter",
            "label": "limit",
            "offset": 0,
            "slot": "2",
            "type": "t_uint256"
          },
          {
            "astId": 11,
            "contract": "contracts/bridge/LegacyTokenOFTAdapter.sol:LegacyTokenOFTAdapter",
            "label": "window",
            "offset": 0,
            "slot": "3",
            "type": "t_uint256"
          }
        ],
        "numberOfBytes": "128"
      },
      "t_uint16": {
        "encoding": "inplace",
        "label": "uint16",
        "numberOfBytes": "2"
      },
      "t_uint256": {
        "encoding": "inplace",
        "label": "uint256",
        "numberOfBytes": "32"
      },
      "t_uint32": {
        "encoding": "inplace",
        "label": "uint32",
        "numberOfBytes": "4"
      }
    }
  }
}