{
  "address": "0xF418d8cE73c6640b773e6D170E419555d592fc48",
  "abi": [
    {
      "inputs": [
        {
          "internalType": "string",
          "name": "name_",
          "type": "string"
        },
        {
          "internalType": "string",
          "name": "symbol_",
          "type": "string"
        },
        {
          "internalType": "address",
          "name": "lzEndpoint_",
          "type": "address"
        },
        {
          "internalType": "address",
          "name": "delegate_",
          "type": "address"
        }
      ],
      "stateMutability": "nonpayable",
      "type": "constructor"
    },
    {
      "inputs": [
        {
          "internalType": "uint256",
          "name": "amountSD",
          "type": "uint256"
        }
      ],
      "name": "AmountSDOverflowed",
      "type": "error"
    },
    {
      "inputs": [],
      "name": "ContractPaused",
      "type": "error"
    },
    {
      "inputs": [],
      "name": "InvalidDelegate",
      "type": "error"
    },
    {
      "inputs": [],
      "name": "InvalidEndpointCall",
      "type": "error"
    },
    {
      "inputs": [],
      "name": "InvalidLocalDecimals",
      "type": "error"
    },
    {
      "inputs": [
        {
          "internalType": "bytes",
          "name": "options",
          "type": "bytes"
        }
      ],
      "name": "InvalidOptions",
      "type": "error"
    },
    {
      "inputs": [],
      "name": "LzTokenUnavailable",
      "type": "error"
    },
    {
      "inputs": [
        {
          "internalType": "uint32",
          "name": "eid",
          "type": "uint32"
        }
      ],
      "name": "NoPeer",
      "type": "error"
    },
    {
      "inputs": [
        {
          "internalType": "uint256",
          "name": "msgValue",
          "type": "uint256"
        }
      ],
      "name": "NotEnoughNative",
      "type": "error"
    },
    {
      "inputs": [
        {
          "internalType": "address",
          "name": "addr",
          "type": "address"
        }
      ],
      "name": "OnlyEndpoint",
      "type": "error"
    },
    {
      "inputs": [
        {
          "internalType": "uint32",
          "name": "eid",
          "type": "uint32"
        },
        {
          "internalType": "bytes32",
          "name": "sender",
          "type": "bytes32"
        }
      ],
      "name": "OnlyPeer",
      "type": "error"
    },
    {
      "inputs": [],
      "name": "OnlySelf",
      "type": "error"
    },
    {
      "inputs": [],
      "name": "RateLimitExceeded",
      "type": "error"
    },
    {
      "inputs": [
        {
          "internalType": "bytes",
          "name": "result",
          "type": "bytes"
        }
      ],
      "name": "SimulationResult",
      "type": "error"
    },
    {
      "inputs": [
        {
          "internalType": "uint256",
          "name": "amountLD",
          "type": "uint256"
        },
        {
          "internalType": "uint256",
          "name": "minAmountLD",
          "type": "uint256"
        }
      ],
      "name": "SlippageExceeded",
      "type": "error"
    },
    {
      "inputs": [],
      "name": "ZeroAddress",
      "type": "error"
    },
    {
      "anonymous": false,
      "inputs": [
        {
          "indexed": true,
          "internalType": "address",
          "name": "owner",
          "type": "address"
        },
        {
          "indexed": true,
          "internalType": "address",
          "name": "spender",
          "type": "address"
        },
        {
          "indexed": false,
          "internalType": "uint256",
          "name": "value",
          "type": "uint256"
        }
      ],
      "name": "Approval",
      "type": "event"
    },
    {
      "anonymous": false,
      "inputs": [
        {
          "components": [
            {
              "internalType": "uint32",
              "name": "eid",
              "type": "uint32"
            },
            {
              "internalType": "uint16",
              "name": "msgType",
              "type": "uint16"
            },
            {
              "internalType": "bytes",
              "name": "options",
              "type": "bytes"
            }
          ],
          "indexed": false,
          "internalType": "struct EnforcedOptionParam[]",
          "name": "_enforcedOptions",
          "type": "tuple[]"
        }
      ],
      "name": "EnforcedOptionSet",
      "type": "event"
    },
    {
      "anonymous": false,
      "inputs": [
        {
          "indexed": false,
          "internalType": "address",
          "name": "inspector",
          "type": "address"
        }
      ],
      "name": "MsgInspectorSet",
      "type": "event"
    },
    {
      "anonymous": false,
      "inputs": [
        {
          "indexed": true,
          "internalType": "bytes32",
          "name": "guid",
          "type": "bytes32"
        },
        {
          "indexed": false,
          "internalType": "uint32",
          "name": "srcEid",
          "type": "uint32"
        },
        {
          "indexed": true,
          "internalType": "address",
          "name": "toAddress",
          "type": "address"
        },
        {
          "indexed": false,
          "internalType": "uint256",
          "name": "amountReceivedLD",
          "type": "uint256"
        }
      ],
      "name": "OFTReceived",
      "type": "event"
    },
    {
      "anonymous": false,
      "inputs": [
        {
          "indexed": true,
          "internalType": "bytes32",
          "name": "guid",
          "type": "bytes32"
        },
        {
          "indexed": false,
          "internalType": "uint32",
          "name": "dstEid",
          "type": "uint32"
        },
        {
          "indexed": true,
          "internalType": "address",
          "name": "fromAddress",
          "type": "address"
        },
        {
          "indexed": false,
          "internalType": "uint256",
          "name": "amountSentLD",
          "type": "uint256"
        },
        {
          "indexed": false,
          "internalType": "uint256",
          "name": "amountReceivedLD",
          "type": "uint256"
        }
      ],
      "name": "OFTSent",
      "type": "event"
    },
    {
      "anonymous": false,
      "inputs": [
        {
          "indexed": true,
          "internalType": "address",
          "name": "previousOwner",
          "type": "address"
        },
        {
          "indexed": true,
          "internalType": "address",
          "name": "newOwner",
          "type": "address"
        }
      ],
      "name": "OwnershipTransferred",
      "type": "event"
    },
    {
      "anonymous": false,
      "inputs": [
        {
          "indexed": false,
          "internalType": "address",
          "name": "account",
          "type": "address"
        }
      ],
      "name": "Paused",
      "type": "event"
    },
    {
      "anonymous": false,
      "inputs": [
        {
          "indexed": false,
          "internalType": "uint32",
          "name": "eid",
          "type": "uint32"
        },
        {
          "indexed": false,
          "internalType": "bytes32",
          "name": "peer",
          "type": "bytes32"
        }
      ],
      "name": "PeerSet",
      "type": "event"
    },
    {
      "anonymous": false,
      "inputs": [
        {
          "indexed": false,
          "internalType": "address",
          "name": "preCrimeAddress",
          "type": "address"
        }
      ],
      "name": "PreCrimeSet",
      "type": "event"
    },
    {
      "anonymous": false,
      "inputs": [
        {
          "components": [
            {
              "internalType": "uint32",
              "name": "dstEid",
              "type": "uint32"
            },
            {
              "internalType": "uint256",
              "name": "limit",
              "type": "uint256"
            },
            {
              "internalType": "uint256",
              "name": "window",
              "type": "uint256"
            }
          ],
          "indexed": false,
          "internalType": "struct RateLimiter.RateLimitConfig[]",
          "name": "rateLimitConfigs",
          "type": "tuple[]"
        }
      ],
      "name": "RateLimitsChanged",
      "type": "event"
    },
    {
      "anonymous": false,
      "inputs": [
        {
          "indexed": true,
          "internalType": "address",
          "name": "from",
          "type": "address"
        },
        {
          "indexed": true,
          "internalType": "address",
          "name": "to",
          "type": "address"
        },
        {
          "indexed": false,
          "internalType": "uint256",
          "name": "value",
          "type": "uint256"
        }
      ],
      "name": "Transfer",
      "type": "event"
    },
    {
      "anonymous": false,
      "inputs": [
        {
          "indexed": false,
          "internalType": "address",
          "name": "account",
          "type": "address"
        }
      ],
      "name": "Unpaused",
      "type": "event"
    },
    {
      "inputs": [],
      "name": "SEND",
      "outputs": [
        {
          "internalType": "uint16",
          "name": "",
          "type": "uint16"
        }
      ],
      "stateMutability": "view",
      "type": "function"
    },
    {
      "inputs": [],
      "name": "SEND_AND_CALL",
      "outputs": [
        {
          "internalType": "uint16",
          "name": "",
          "type": "uint16"
        }
      ],
      "stateMutability": "view",
      "type": "function"
    },
    {
      "inputs": [
        {
          "components": [
            {
              "internalType": "uint32",
              "name": "srcEid",
              "type": "uint32"
            },
            {
              "internalType": "bytes32",
              "name": "sender",
              "type": "bytes32"
            },
            {
              "internalType": "uint64",
              "name": "nonce",
              "type": "uint64"
            }
          ],
          "internalType": "struct Origin",
          "name": "origin",
          "type": "tuple"
        }
      ],
      "name": "allowInitializePath",
      "outputs": [
        {
          "internalType": "bool",
          "name": "",
          "type": "bool"
        }
      ],
      "stateMutability": "view",
      "type": "function"
    },
    {
      "inputs": [
        {
          "internalType": "address",
          "name": "owner",
          "type": "address"
        },
        {
          "internalType": "address",
          "name": "spender",
          "type": "address"
        }
      ],
      "name": "allowance",
      "outputs": [
        {
          "internalType": "uint256",
          "name": "",
          "type": "uint256"
        }
      ],
      "stateMutability": "view",
      "type": "function"
    },
    {
      "inputs": [],
      "name": "approvalRequired",
      "outputs": [
        {
          "internalType": "bool",
          "name": "",
          "type": "bool"
        }
      ],
      "stateMutability": "pure",
      "type": "function"
    },
    {
      "inputs": [
        {
          "internalType": "address",
          "name": "spender",
          "type": "address"
        },
        {
          "internalType": "uint256",
          "name": "amount",
          "type": "uint256"
        }
      ],
      "name": "approve",
      "outputs": [
        {
          "internalType": "bool",
          "name": "",
          "type": "bool"
        }
      ],
      "stateMutability": "nonpayable",
      "type": "function"
    },
    {
      "inputs": [
        {
          "internalType": "address",
          "name": "account",
          "type": "address"
        }
      ],
      "name": "balanceOf",
      "outputs": [
        {
          "internalType": "uint256",
          "name": "",
          "type": "uint256"
        }
      ],
      "stateMutability": "view",
      "type": "function"
    },
    {
      "inputs": [
        {
          "internalType": "uint32",
          "name": "_eid",
          "type": "uint32"
        },
        {
          "internalType": "uint16",
          "name": "_msgType",
          "type": "uint16"
        },
        {
          "internalType": "bytes",
          "name": "_extraOptions",
          "type": "bytes"
        }
      ],
      "name": "combineOptions",
      "outputs": [
        {
          "internalType": "bytes",
          "name": "",
          "type": "bytes"
        }
      ],
      "stateMutability": "view",
      "type": "function"
    },
    {
      "inputs": [],
      "name": "decimalConversionRate",
      "outputs": [
        {
          "internalType": "uint256",
          "name": "",
          "type": "uint256"
        }
      ],
      "stateMutability": "view",
      "type": "function"
    },
    {
      "inputs": [],
      "name": "decimals",
      "outputs": [
        {
          "internalType": "uint8",
          "name": "",
          "type": "uint8"
        }
      ],
      "stateMutability": "view",
      "type": "function"
    },
    {
      "inputs": [
        {
          "internalType": "address",
          "name": "spender",
          "type": "address"
        },
        {
          "internalType": "uint256",
          "name": "subtractedValue",
          "type": "uint256"
        }
      ],
      "name": "decreaseAllowance",
      "outputs": [
        {
          "internalType": "bool",
          "name": "",
          "type": "bool"
        }
      ],
      "stateMutability": "nonpayable",
      "type": "function"
    },
    {
      "inputs": [],
      "name": "endpoint",
      "outputs": [
        {
          "internalType": "contract ILayerZeroEndpointV2",
          "name": "",
          "type": "address"
        }
      ],
      "stateMutability": "view",
      "type": "function"
    },
    {
      "inputs": [
        {
          "internalType": "uint32",
          "name": "eid",
          "type": "uint32"
        },
        {
          "internalType": "uint16",
          "name": "msgType",
          "type": "uint16"
        }
      ],
      "name": "enforcedOptions",
      "outputs": [
        {
          "internalType": "bytes",
          "name": "enforcedOption",
          "type": "bytes"
        }
      ],
      "stateMutability": "view",
      "type": "function"
    },
    {
      "inputs": [
        {
          "internalType": "uint32",
          "name": "_dstEid",
          "type": "uint32"
        }
      ],
      "name": "getAmountCanBeSent",
      "outputs": [
        {
          "internalType": "uint256",
          "name": "currentAmountInFlight",
          "type": "uint256"
        },
        {
          "internalType": "uint256",
          "name": "amountCanBeSent",
          "type": "uint256"
        }
      ],
      "stateMutability": "view",
      "type": "function"
    },
    {
      "inputs": [
        {
          "internalType": "address",
          "name": "spender",
          "type": "address"
        },
        {
          "internalType": "uint256",
          "name": "addedValue",
          "type": "uint256"
        }
      ],
      "name": "increaseAllowance",
      "outputs": [
        {
          "internalType": "bool",
          "name": "",
          "type": "bool"
        }
      ],
      "stateMutability": "nonpayable",
      "type": "function"
    },
    {
      "inputs": [
        {
          "components": [
            {
              "internalType": "uint32",
              "name": "srcEid",
              "type": "uint32"
            },
            {
              "internalType": "bytes32",
              "name": "sender",
              "type": "bytes32"
            },
            {
              "internalType": "uint64",
              "name": "nonce",
              "type": "uint64"
            }
          ],
          "internalType": "struct Origin",
          "name": "",
          "type": "tuple"
        },
        {
          "internalType": "bytes",
          "name": "",
          "type": "bytes"
        },
        {
          "internalType": "address",
          "name": "_sender",
          "type": "address"
        }
      ],
      "name": "isComposeMsgSender",
      "outputs": [
        {
          "internalType": "bool",
          "name": "",
          "type": "bool"
        }
      ],
      "stateMutability": "view",
      "type": "function"
    },
    {
      "inputs": [
        {
          "internalType": "uint32",
          "name": "_eid",
          "type": "uint32"
        },
        {
          "internalType": "bytes32",
          "name": "_peer",
          "type": "bytes32"
        }
      ],
      "name": "isPeer",
      "outputs": [
        {
          "internalType": "bool",
          "name": "",
          "type": "bool"
        }
      ],
      "stateMutability": "view",
      "type": "function"
    },
    {
      "inputs": [
        {
          "components": [
            {
              "internalType": "uint32",
              "name": "srcEid",
              "type": "uint32"
            },
            {
              "internalType": "bytes32",
              "name": "sender",
              "type": "bytes32"
            },
            {
              "internalType": "uint64",
              "name": "nonce",
              "type": "uint64"
            }
          ],
          "internalType": "struct Origin",
          "name": "_origin",
          "type": "tuple"
        },
        {
          "internalType": "bytes32",
          "name": "_guid",
          "type": "bytes32"
        },
        {
          "internalType": "bytes",
          "name": "_message",
          "type": "bytes"
        },
        {
          "internalType": "address",
          "name": "_executor",
          "type": "address"
        },
        {
          "internalType": "bytes",
          "name": "_extraData",
          "type": "bytes"
        }
      ],
      "name": "lzReceive",
      "outputs": [],
      "stateMutability": "payable",
      "type": "function"
    },
    {
      "inputs": [
        {
          "components": [
            {
              "components": [
                {
                  "internalType": "uint32",
                  "name": "srcEid",
                  "type": "uint32"
                },
                {
                  "internalType": "bytes32",
                  "name": "sender",
                  "type": "bytes32"
                },
                {
                  "internalType": "uint64",
                  "name": "nonce",
                  "type": "uint64"
                }
              ],
              "internalType": "struct Origin",
              "name": "origin",
              "type": "tuple"
            },
            {
              "internalType": "uint32",
              "name": "dstEid",
              "type": "uint32"
            },
            {
              "internalType": "address",
              "name": "receiver",
              "type": "address"
            },
            {
              "internalType": "bytes32",
              "name": "guid",
              "type": "bytes32"
            },
            {
              "internalType": "uint256",
              "name": "value",
              "type": "uint256"
            },
            {
              "internalType": "address",
              "name": "executor",
              "type": "address"
            },
            {
              "internalType": "bytes",
              "name": "message",
              "type": "bytes"
            },
            {
              "internalType": "bytes",
              "name": "extraData",
              "type": "bytes"
            }
          ],
          "internalType": "struct InboundPacket[]",
          "name": "_packets",
          "type": "tuple[]"
        }
      ],
      "name": "lzReceiveAndRevert",
      "outputs": [],
      "stateMutability": "payable",
      "type": "function"
    },
    {
      "inputs": [
        {
          "components": [
            {
              "internalType": "uint32",
              "name": "srcEid",
              "type": "uint32"
            },
            {
              "internalType": "bytes32",
              "name": "sender",
              "type": "bytes32"
            },
            {
              "internalType": "uint64",
              "name": "nonce",
              "type": "uint64"
            }
          ],
          "internalType": "struct Origin",
          "name": "_origin",
          "type": "tuple"
        },
        {
          "internalType": "bytes32",
          "name": "_guid",
          "type": "bytes32"
        },
        {
          "internalType": "bytes",
          "name": "_message",
          "type": "bytes"
        },
        {
          "internalType": "address",
          "name": "_executor",
          "type": "address"
        },
        {
          "internalType": "bytes",
          "name": "_extraData",
          "type": "bytes"
        }
      ],
      "name": "lzReceiveSimulate",
      "outputs": [],
      "stateMutability": "payable",
      "type": "function"
    },
    {
      "inputs": [],
      "name": "msgInspector",
      "outputs": [
        {
          "internalType": "address",
          "name": "",
          "type": "address"
        }
      ],
      "stateMutability": "view",
      "type": "function"
    },
    {
      "inputs": [],
      "name": "name",
      "outputs": [
        {
          "internalType": "string",
          "name": "",
          "type": "string"
        }
      ],
      "stateMutability": "view",
      "type": "function"
    },
    {
      "inputs": [
        {
          "internalType": "uint32",
          "name": "",
          "type": "uint32"
        },
        {
          "internalType": "bytes32",
          "name": "",
          "type": "bytes32"
        }
      ],
      "name": "nextNonce",
      "outputs": [
        {
          "internalType": "uint64",
          "name": "nonce",
          "type": "uint64"
        }
      ],
      "stateMutability": "view",
      "type": "function"
    },
    {
      "inputs": [],
      "name": "oApp",
      "outputs": [
        {
          "internalType": "address",
          "name": "",
          "type": "address"
        }
      ],
      "stateMutability": "view",
      "type": "function"
    },
    {
      "inputs": [],
      "name": "oAppVersion",
      "outputs": [
        {
          "internalType": "uint64",
          "name": "senderVersion",
          "type": "uint64"
        },
        {
          "internalType": "uint64",
          "name": "receiverVersion",
          "type": "uint64"
        }
      ],
      "stateMutability": "pure",
      "type": "function"
    },
    {
      "inputs": [],
      "name": "oftVersion",
      "outputs": [
        {
          "internalType": "bytes4",
          "name": "interfaceId",
          "type": "bytes4"
        },
        {
          "internalType": "uint64",
          "name": "version",
          "type": "uint64"
        }
      ],
      "stateMutability": "pure",
      "type": "function"
    },
    {
      "inputs": [],
      "name": "owner",
      "outputs": [
        {
          "internalType": "address",
          "name": "",
          "type": "address"
        }
      ],
      "stateMutability": "view",
      "type": "function"
    },
    {
      "inputs": [],
      "name": "pause",
      "outputs": [],
      "stateMutability": "nonpayable",
      "type": "function"
    },
    {
      "inputs": [],
      "name": "paused",
      "outputs": [
        {
          "internalType": "bool",
          "name": "",
          "type": "bool"
        }
      ],
      "stateMutability": "view",
      "type": "function"
    },
    {
      "inputs": [
        {
          "internalType": "uint32",
          "name": "eid",
          "type": "uint32"
        }
      ],
      "name": "peers",
      "outputs": [
        {
          "internalType": "bytes32",
          "name": "peer",
          "type": "bytes32"
        }
      ],
      "stateMutability": "view",
      "type": "function"
    },
    {
      "inputs": [],
      "name": "preCrime",
      "outputs": [
        {
          "internalType": "address",
          "name": "",
          "type": "address"
        }
      ],
      "stateMutability": "view",
      "type": "function"
    },
    {
      "inputs": [
        {
          "components": [
            {
              "internalType": "uint32",
              "name": "dstEid",
              "type": "uint32"
            },
            {
              "internalType": "bytes32",
              "name": "to",
              "type": "bytes32"
            },
            {
              "internalType": "uint256",
              "name": "amountLD",
              "type": "uint256"
            },
            {
              "internalType": "uint256",
              "name": "minAmountLD",
              "type": "uint256"
            },
            {
              "internalType": "bytes",
              "name": "extraOptions",
              "type": "bytes"
            },
            {
              "internalType": "bytes",
              "name": "composeMsg",
              "type": "bytes"
            },
            {
              "internalType": "bytes",
              "name": "oftCmd",
              "type": "bytes"
            }
          ],
          "internalType": "struct SendParam",
          "name": "_sendParam",
          "type": "tuple"
        }
      ],
      "name": "quoteOFT",
      "outputs": [
        {
          "components": [
            {
              "internalType": "uint256",
              "name": "minAmountLD",
              "type": "uint256"
            },
            {
              "internalType": "uint256",
              "name": "maxAmountLD",
              "type": "uint256"
            }
          ],
          "internalType": "struct OFTLimit",
          "name": "oftLimit",
          "type": "tuple"
        },
        {
          "components": [
            {
              "internalType": "int256",
              "name": "feeAmountLD",
              "type": "int256"
            },
            {
              "internalType": "string",
              "name": "description",
              "type": "string"
            }
          ],
          "internalType": "struct OFTFeeDetail[]",
          "name": "oftFeeDetails",
          "type": "tuple[]"
        },
        {
          "components": [
            {
              "internalType": "uint256",
              "name": "amountSentLD",
              "type": "uint256"
            },
            {
              "internalType": "uint256",
              "name": "amountReceivedLD",
              "type": "uint256"
            }
          ],
          "internalType": "struct OFTReceipt",
          "name": "oftReceipt",
          "type": "tuple"
        }
      ],
      "stateMutability": "view",
      "type": "function"
    },
    {
      "inputs": [
        {
          "components": [
            {
              "internalType": "uint32",
              "name": "dstEid",
              "type": "uint32"
            },
            {
              "internalType": "bytes32",
              "name": "to",
              "type": "bytes32"
            },
            {
              "internalType": "uint256",
              "name": "amountLD",
              "type": "uint256"
            },
            {
              "internalType": "uint256",
              "name": "minAmountLD",
              "type": "uint256"
            },
            {
              "internalType": "bytes",
              "name": "extraOptions",
              "type": "bytes"
            },
            {
              "internalType": "bytes",
              "name": "composeMsg",
              "type": "bytes"
            },
            {
              "internalType": "bytes",
              "name": "oftCmd",
              "type": "bytes"
            }
          ],
          "internalType": "struct SendParam",
          "name": "_sendParam",
          "type": "tuple"
        },
        {
          "internalType": "bool",
          "name": "_payInLzToken",
          "type": "bool"
        }
      ],
      "name": "quoteSend",
      "outputs": [
        {
          "components": [
            {
              "internalType": "uint256",
              "name": "nativeFee",
              "type": "uint256"
            },
            {
              "internalType": "uint256",
              "name": "lzTokenFee",
              "type": "uint256"
            }
          ],
          "internalType": "struct MessagingFee",
          "name": "msgFee",
          "type": "tuple"
        }
      ],
      "stateMutability": "view",
      "type": "function"
    },
    {
      "inputs": [
        {
          "internalType": "uint32",
          "name": "dstEid",
          "type": "uint32"
        }
      ],
      "name": "rateLimits",
      "outputs": [
        {
          "internalType": "uint256",
          "name": "amountInFlight",
          "type": "uint256"
        },
        {
          "internalType": "uint256",
          "name": "lastUpdated",
          "type": "uint256"
        },
        {
          "internalType": "uint256",
          "name": "limit",
          "type": "uint256"
        },
        {
          "internalType": "uint256",
          "name": "window",
          "type": "uint256"
        }
      ],
      "stateMutability": "view",
      "type": "function"
    },
    {
      "inputs": [],
      "name": "renounceOwnership",
      "outputs": [],
      "stateMutability": "nonpayable",
      "type": "function"
    },
    {
      "inputs": [
        {
          "components": [
            {
              "internalType": "uint32",
              "name": "dstEid",
              "type": "uint32"
            },
            {
              "internalType": "bytes32",
              "name": "to",
              "type": "bytes32"
            },
            {
              "internalType": "uint256",
              "name": "amountLD",
              "type": "uint256"
            },
            {
              "internalType": "uint256",
              "name": "minAmountLD",
              "type": "uint256"
            },
            {
              "internalType": "bytes",
              "name": "extraOptions",
              "type": "bytes"
            },
            {
              "internalType": "bytes",
              "name": "composeMsg",
              "type": "bytes"
            },
            {
              "internalType": "bytes",
              "name": "oftCmd",
              "type": "bytes"
            }
          ],
          "internalType": "struct SendParam",
          "name": "_sendParam",
          "type": "tuple"
        },
        {
          "components": [
            {
              "internalType": "uint256",
              "name": "nativeFee",
              "type": "uint256"
            },
            {
              "internalType": "uint256",
              "name": "lzTokenFee",
              "type": "uint256"
            }
          ],
          "internalType": "struct MessagingFee",
          "name": "_fee",
          "type": "tuple"
        },
        {
          "internalType": "address",
          "name": "_refundAddress",
          "type": "address"
        }
      ],
      "name": "send",
      "outputs": [
        {
          "components": [
            {
              "internalType": "bytes32",
              "name": "guid",
              "type": "bytes32"
            },
            {
              "internalType": "uint64",
              "name": "nonce",
              "type": "uint64"
            },
            {
              "components": [
                {
                  "internalType": "uint256",
                  "name": "nativeFee",
                  "type": "uint256"
                },
                {
                  "internalType": "uint256",
                  "name": "lzTokenFee",
                  "type": "uint256"
                }
              ],
              "internalType": "struct MessagingFee",
              "name": "fee",
              "type": "tuple"
            }
          ],
          "internalType": "struct MessagingReceipt",
          "name": "msgReceipt",
          "type": "tuple"
        },
        {
          "components": [
            {
              "internalType": "uint256",
              "name": "amountSentLD",
              "type": "uint256"
            },
            {
              "internalType": "uint256",
              "name": "amountReceivedLD",
              "type": "uint256"
            }
          ],
          "internalType": "struct OFTReceipt",
          "name": "oftReceipt",
          "type": "tuple"
        }
      ],
      "stateMutability": "payable",
      "type": "function"
    },
    {
      "inputs": [
        {
          "internalType": "address",
          "name": "_delegate",
          "type": "address"
        }
      ],
      "name": "setDelegate",
      "outputs": [],
      "stateMutability": "nonpayable",
      "type": "function"
    },
    {
      "inputs": [
        {
          "components": [
            {
              "internalType": "uint32",
              "name": "eid",
              "type": "uint32"
            },
            {
              "internalType": "uint16",
              "name": "msgType",
              "type": "uint16"
            },
            {
              "internalType": "bytes",
              "name": "options",
              "type": "bytes"
            }
          ],
          "internalType": "struct EnforcedOptionParam[]",
          "name": "_enforcedOptions",
          "type": "tuple[]"
        }
      ],
      "name": "setEnforcedOptions",
      "outputs": [],
      "stateMutability": "nonpayable",
      "type": "function"
    },
    {
      "inputs": [
        {
          "internalType": "address",
          "name": "_msgInspector",
          "type": "address"
        }
      ],
      "name": "setMsgInspector",
      "outputs": [],
      "stateMutability": "nonpayable",
      "type": "function"
    },
    {
      "inputs": [
        {
          "internalType": "uint32",
          "name": "_eid",
          "type": "uint32"
        },
        {
          "internalType": "bytes32",
          "name": "_peer",
          "type": "bytes32"
        }
      ],
      "name": "setPeer",
      "outputs": [],
      "stateMutability": "nonpayable",
      "type": "function"
    },
    {
      "inputs": [
        {
          "internalType": "address",
          "name": "_preCrime",
          "type": "address"
        }
      ],
      "name": "setPreCrime",
      "outputs": [],
      "stateMutability": "nonpayable",
      "type": "function"
    },
    {
      "inputs": [
        {
          "components": [
            {
              "internalType": "uint32",
              "name": "dstEid",
              "type": "uint32"
            },
            {
              "internalType": "uint256",
              "name": "limit",
              "type": "uint256"
            },
            {
              "internalType": "uint256",
              "name": "window",
              "type": "uint256"
            }
          ],
          "internalType": "struct RateLimiter.RateLimitConfig[]",
          "name": "rateLimitConfigs",
          "type": "tuple[]"
        }
      ],
      "name": "setRateLimits",
      "outputs": [],
      "stateMutability": "nonpayable",
      "type": "function"
    },
    {
      "inputs": [],
      "name": "sharedDecimals",
      "outputs": [
        {
          "internalType": "uint8",
          "name": "",
          "type": "uint8"
        }
      ],
      "stateMutability": "pure",
      "type": "function"
    },
    {
      "inputs": [],
      "name": "symbol",
      "outputs": [
        {
          "internalType": "string",
          "name": "",
          "type": "string"
        }
      ],
      "stateMutability": "view",
      "type": "function"
    },
    {
      "inputs": [],
      "name": "token",
      "outputs": [
        {
          "internalType": "address",
          "name": "",
          "type": "address"
        }
      ],
      "stateMutability": "view",
      "type": "function"
    },
    {
      "inputs": [],
      "name": "totalSupply",
      "outputs": [
        {
          "internalType": "uint256",
          "name": "",
          "type": "uint256"
        }
      ],
      "stateMutability": "view",
      "type": "function"
    },
    {
      "inputs": [
        {
          "internalType": "address",
          "name": "to",
          "type": "address"
        },
        {
          "internalType": "uint256",
          "name": "amount",
          "type": "uint256"
        }
      ],
      "name": "transfer",
      "outputs": [
        {
          "internalType": "bool",
          "name": "",
          "type": "bool"
        }
      ],
      "stateMutability": "nonpayable",
      "type": "function"
    },
    {
      "inputs": [
        {
          "internalType": "address",
          "name": "from",
          "type": "address"
        },
        {
          "internalType": "address",
          "name": "to",
          "type": "address"
        },
        {
          "internalType": "uint256",
          "name": "amount",
          "type": "uint256"
        }
      ],
      "name": "transferFrom",
      "outputs": [
        {
          "internalType": "bool",
          "name": "",
          "type": "bool"
        }
      ],
      "stateMutability": "nonpayable",
      "type": "function"
    },
    {
      "inputs": [
        {
          "internalType": "address",
          "name": "newOwner",
          "type": "address"
        }
      ],
      "name": "transferOwnership",
      "outputs": [],
      "stateMutability": "nonpayable",
      "type": "function"
    },
    {
      "inputs": [],
      "name": "unpause",
      "outputs": [],
      "stateMutability": "nonpayable",
      "type": "function"
    }
  ],
  "transactionHash": "0x2ac953d8afafd3b72b2950ef9f7aa948d595c62bddf0b5d6b9a606164d5b2e3f",
  "args": [
    "Legacy Token",
    "LGT",
    "0x6EDCE65403992e310A62460808c4b910D972f10f",
    "0xeF519A9DC8e62765B72ad9e22B26Aeb3e4ae5494"
  ],
  "numDeployments": 1,
  "solcInputHash": "d42acc44b893702f83129119e03354bc",
  "bytecode": "0x60c06040523480156200001157600080fd5b5060405162004451380380620044518339810160408190526200003491620003e7565b83836200004184620001b0565b33838360128484818181816200005733620001de565b6001600160a01b0380831660805281166200008557604051632d618d8160e21b815260040160405180910390fd5b60805160405163ca5eb5e160e01b81526001600160a01b0383811660048301529091169063ca5eb5e190602401600060405180830381600087803b158015620000cd57600080fd5b505af1158015620000e2573d6000803e3d6000fd5b5050505050505050620000fa6200022e60201b60201c565b60ff168360ff16101562000121576040516301e9714b60e41b815260040160405180910390fd5b6200012e6006846200048c565b6200013b90600a620005ab565b60a0525060089150620001519050838262000654565b50600962000160828262000654565b5050600b805460ff191690555050506001600160a01b03831691506200019b90505760405163d92e233d60e01b815260040160405180910390fd5b620001a68162000233565b5050505062000720565b60006001600160a01b038216620001da5760405163d92e233d60e01b815260040160405180910390fd5b5090565b600080546001600160a01b038381166001600160a01b0319831681178455604051919092169283917f8be0079c531659141344cd1fd0a4f28419497f9722a3daafe3b4186f6b6457e09190a35050565b600690565b6200023d620002a1565b60805160405163ca5eb5e160e01b81526001600160a01b0383811660048301529091169063ca5eb5e190602401600060405180830381600087803b1580156200028557600080fd5b505af11580156200029a573d6000803e3d6000fd5b5050505050565b6000546001600160a01b03163314620003005760405162461bcd60e51b815260206004820181905260248201527f4f776e61626c653a2063616c6c6572206973206e6f7420746865206f776e6572604482015260640160405180910390fd5b565b634e487b7160e01b600052604160045260246000fd5b600082601f8301126200032a57600080fd5b81516001600160401b038082111562000347576200034762000302565b604051601f8301601f19908116603f0116810190828211818310171562000372576200037262000302565b81604052838152602092508660208588010111156200039057600080fd5b600091505b83821015620003b4578582018301518183018401529082019062000395565b6000602085830101528094505050505092915050565b80516001600160a01b0381168114620003e257600080fd5b919050565b60008060008060808587031215620003fe57600080fd5b84516001600160401b03808211156200041657600080fd5b620004248883890162000318565b955060208701519150808211156200043b57600080fd5b506200044a8782880162000318565b9350506200045b60408601620003ca565b91506200046b60608601620003ca565b905092959194509250565b634e487b7160e01b600052601160045260246000fd5b60ff8281168282160390811115620004a857620004a862000476565b92915050565b600181815b80851115620004ef578160001904821115620004d357620004d362000476565b80851615620004e157918102915b93841c9390800290620004b3565b509250929050565b6000826200050857506001620004a8565b816200051757506000620004a8565b81600181146200053057600281146200053b576200055b565b6001915050620004a8565b60ff8411156200054f576200054f62000476565b50506001821b620004a8565b5060208310610133831016604e8410600b841016171562000580575081810a620004a8565b6200058c8383620004ae565b8060001904821115620005a357620005a362000476565b029392505050565b6000620005bc60ff841683620004f7565b9392505050565b600181811c90821680620005d857607f821691505b602082108103620005f957634e487b7160e01b600052602260045260246000fd5b50919050565b601f8211156200064f576000816000526020600020601f850160051c810160208610156200062a5750805b601f850160051c820191505b818110156200064b5782815560010162000636565b5050505b505050565b81516001600160401b0381111562000670576200067062000302565b6200068881620006818454620005c3565b84620005ff565b602080601f831160018114620006c05760008415620006a75750858301515b600019600386901b1c1916600185901b1785556200064b565b600085815260208120601f198616915b82811015620006f157888601518255948401946001909101908401620006d0565b5085821015620007105787850151600019600388901b60f8161c191681555b5050505050600190811b01905550565b60805160a051613cc56200078c60003960008181610718015281816121d70152818161224c015261233b0152600081816105c201528181610bd8015281816113b4015281816117a301528181611c8201528181612590015281816126d901526127920152613cc56000f3fe6080604052600436106102c95760003560e01c80637d25a05e11610175578063b98bd070116100dc578063ca5eb5e111610095578063dd62ed3e1161006f578063dd62ed3e14610939578063f2fde38b14610959578063fc0c546a1461052e578063ff7bd03d1461097957600080fd5b8063ca5eb5e1146108e6578063d045a0dc14610906578063d42438851461091957600080fd5b8063b98bd07014610810578063bb0b6a5314610830578063bc70b3541461085d578063bd815db01461087d578063c272198d14610890578063c7c7f5b3146108c557600080fd5b8063963efcaa1161012e578063963efcaa146107065780639f68b9641461073a578063a457c2d71461074e578063a9059cbb1461076e578063ab99095d1461078e578063b731ea0a146107f057600080fd5b80637d25a05e1461064f57806382413eac1461068a5780638456cb59146106aa578063857749b0146106bf5780638da5cb5b146106d357806395d89b41146106f157600080fd5b80633400288b116102345780635535d461116101ed5780635e280f11116101c75780635e280f11146105b05780636fc1b31e146105e457806370a0823114610604578063715018a61461063a57600080fd5b80635535d461146105415780635a0dfe4d146105615780635c975abb1461059857600080fd5b80633400288b1461048c57806339509351146104ac5780633b6f743b146104cc5780633f4ba83a146104f957806346f943e91461050e57806352ae28791461052e57600080fd5b8063156a0d0f11610286578063156a0d0f146103cd57806317442b70146103f457806318160ddd146104165780631f5e13341461043557806323b872dd1461044a578063313ce5671461046a57600080fd5b806306fdde03146102ce578063095ea7b3146102f95780630d35b41514610329578063111ecdad1461035857806313137d6514610390578063134d4f25146103a5575b600080fd5b3480156102da57600080fd5b506102e3610999565b6040516102f09190612c6e565b60405180910390f35b34801561030557600080fd5b50610319610314366004612c96565b610a2b565b60405190151581526020016102f0565b34801561033557600080fd5b50610349610344366004612cda565b610a45565b6040516102f093929190612d0e565b34801561036457600080fd5b50600454610378906001600160a01b031681565b6040516001600160a01b0390911681526020016102f0565b6103a361039e366004612e01565b610bd6565b005b3480156103b157600080fd5b506103ba600281565b60405161ffff90911681526020016102f0565b3480156103d957600080fd5b506040805162b9270b60e21b815260016020820152016102f0565b34801561040057600080fd5b50604080516001815260026020820152016102f0565b34801561042257600080fd5b506007545b6040519081526020016102f0565b34801561044157600080fd5b506103ba600181565b34801561045657600080fd5b50610319610465366004612ea0565b610c96565b34801561047657600080fd5b5060125b60405160ff90911681526020016102f0565b34801561049857600080fd5b506103a36104a7366004612efa565b610cbc565b3480156104b857600080fd5b506103196104c7366004612c96565b610cd2565b3480156104d857600080fd5b506104ec6104e7366004612f24565b610cf4565b6040516102f09190612f75565b34801561050557600080fd5b506103a3610d5b565b34801561051a57600080fd5b506103a3610529366004612f8c565b610d6d565b34801561053a57600080fd5b5030610378565b34801561054d57600080fd5b506102e361055c366004613012565b610dd0565b34801561056d57600080fd5b5061031961057c366004612efa565b63ffffffff919091166000908152600160205260409020541490565b3480156105a457600080fd5b50600b5460ff16610319565b3480156105bc57600080fd5b506103787f000000000000000000000000000000000000000000000000000000000000000081565b3480156105f057600080fd5b506103a36105ff366004613045565b610e75565b34801561061057600080fd5b5061042761061f366004613045565b6001600160a01b031660009081526005602052604090205490565b34801561064657600080fd5b506103a3610ed2565b34801561065b57600080fd5b5061067261066a366004612efa565b600092915050565b6040516001600160401b0390911681526020016102f0565b34801561069657600080fd5b506103196106a5366004613062565b610ee4565b3480156106b657600080fd5b506103a3610ef9565b3480156106cb57600080fd5b50600661047a565b3480156106df57600080fd5b506000546001600160a01b0316610378565b3480156106fd57600080fd5b506102e3610f09565b34801561071257600080fd5b506104277f000000000000000000000000000000000000000000000000000000000000000081565b34801561074657600080fd5b506000610319565b34801561075a57600080fd5b50610319610769366004612c96565b610f18565b34801561077a57600080fd5b50610319610789366004612c96565b610f9e565b34801561079a57600080fd5b506107d06107a93660046130c8565b600a6020526000908152604090208054600182015460028301546003909301549192909184565b6040805194855260208501939093529183015260608201526080016102f0565b3480156107fc57600080fd5b50600254610378906001600160a01b031681565b34801561081c57600080fd5b506103a361082b366004613127565b610fac565b34801561083c57600080fd5b5061042761084b3660046130c8565b60016020526000908152604090205481565b34801561086957600080fd5b506102e3610878366004613168565b610fc6565b6103a361088b366004613127565b61116e565b34801561089c57600080fd5b506108b06108ab3660046130c8565b6112f8565b604080519283526020830191909152016102f0565b6108d86108d33660046131c8565b611359565b6040516102f0929190613235565b3480156108f257600080fd5b506103a3610901366004613045565b61138d565b6103a3610914366004612e01565b611413565b34801561092557600080fd5b506103a3610934366004613045565b611442565b34801561094557600080fd5b50610427610954366004613287565b611498565b34801561096557600080fd5b506103a3610974366004613045565b6114c3565b34801561098557600080fd5b506103196109943660046132b5565b61153c565b6060600880546109a8906132d1565b80601f01602080910402602001604051908101604052809291908181526020018280546109d4906132d1565b8015610a215780601f106109f657610100808354040283529160200191610a21565b820191906000526020600020905b815481529060010190602001808311610a0457829003601f168201915b5050505050905090565b600033610a39818585611572565b60019150505b92915050565b60408051808201909152600080825260208201526060610a78604051806040016040528060008152602001600081525090565b600080306001600160a01b031663fc0c546a6040518163ffffffff1660e01b8152600401602060405180830381865afa158015610ab9573d6000803e3d6000fd5b505050506040513d601f19601f82011682018060405250810190610add9190613305565b6001600160a01b03166318160ddd6040518163ffffffff1660e01b8152600401602060405180830381865afa158015610b1a573d6000803e3d6000fd5b505050506040513d601f19601f82011682018060405250810190610b3e9190613322565b60408051808201825284815260208082018490528251600080825291810190935290975091925090610b93565b604080518082019091526000815260606020820152815260200190600190039081610b6b5790505b509350600080610bb8604089013560608a0135610bb360208c018c6130c8565b611696565b60408051808201909152918252602082015296989597505050505050565b7f00000000000000000000000000000000000000000000000000000000000000006001600160a01b03163314610c26576040516391ac5e4f60e01b81523360048201526024015b60405180910390fd5b60208701803590610c4090610c3b908a6130c8565b6116d2565b14610c7e57610c5260208801886130c8565b60405163309afaf360e21b815263ffffffff909116600482015260208801356024820152604401610c1d565b610c8d8787878787878761170e565b50505050505050565b600033610ca4858285611875565b610caf8585856118ef565b60019150505b9392505050565b610cc4611a9a565b610cce8282611af4565b5050565b600033610a39818585610ce58383611498565b610cef9190613367565b611572565b60408051808201909152600080825260208201526000610d2460408501356060860135610bb360208801886130c8565b915050600080610d348684611b49565b9092509050610d51610d4960208801886130c8565b838388611c6c565b9695505050505050565b610d63611a9a565b610d6b611d4d565b565b610d75611a9a565b610cce8282808060200260200160405190810160405280939291908181526020016000905b82821015610dc657610db7606083028601368190038101906133f4565b81526020019060010190610d9a565b5050505050611d9f565b600360209081526000928352604080842090915290825290208054610df4906132d1565b80601f0160208091040260200160405190810160405280929190818152602001828054610e20906132d1565b8015610e6d5780601f10610e4257610100808354040283529160200191610e6d565b820191906000526020600020905b815481529060010190602001808311610e5057829003601f168201915b505050505081565b610e7d611a9a565b600480546001600160a01b0319166001600160a01b0383169081179091556040519081527ff0be4f1e87349231d80c36b33f9e8639658eeaf474014dee15a3e6a4d4414197906020015b60405180910390a150565b610eda611a9a565b610d6b6000611e98565b6001600160a01b03811630145b949350505050565b610f01611a9a565b610d6b611ee8565b6060600980546109a8906132d1565b60003381610f268286611498565b905083811015610f865760405162461bcd60e51b815260206004820152602560248201527f45524332303a2064656372656173656420616c6c6f77616e63652062656c6f77604482015264207a65726f60d81b6064820152608401610c1d565b610f938286868403611572565b506001949350505050565b600033610a398185856118ef565b610fb4611a9a565b610cce610fc1828461345e565b611f25565b63ffffffff8416600090815260036020908152604080832061ffff87168452909152812080546060929190610ffa906132d1565b80601f0160208091040260200160405190810160405280929190818152602001828054611026906132d1565b80156110735780601f1061104857610100808354040283529160200191611073565b820191906000526020600020905b81548152906001019060200180831161105657829003601f168201915b5050505050905080516000036110c35783838080601f016020809104026020016040519081016040528093929190818152602001838380828437600092019190915250929450610ef19350505050565b60008390036110d3579050610ef1565b600283106111515761111a84848080601f01602080910402602001604051908101604052809392919081815260200183838082843760009201919091525061202c92505050565b806111288460028188613573565b60405160200161113a9392919061359d565b604051602081830303815290604052915050610ef1565b8383604051639a6d49cd60e01b8152600401610c1d9291906135ee565b60005b81811015611277573683838381811061118c5761118c613602565b905060200281019061119e9190613618565b90506111d16111b060208301836130c8565b602083013563ffffffff919091166000908152600160205260409020541490565b6111db575061126f565b3063d045a0dc60c08301358360a08101356111fa610100830183613639565b61120b610100890160e08a01613045565b6112196101208a018a613639565b6040518963ffffffff1660e01b815260040161123b9796959493929190613694565b6000604051808303818588803b15801561125457600080fd5b505af1158015611268573d6000803e3d6000fd5b5050505050505b600101611171565b50336001600160a01b0316638e9e70996040518163ffffffff1660e01b8152600401600060405180830381865afa1580156112b6573d6000803e3d6000fd5b505050506040513d6000823e601f3d908101601f191682016040526112de919081019061371a565b604051638351eea760e01b8152600401610c1d9190612c6e565b63ffffffff81166000908152600a602090815260408083208151608081018352815480825260018301549482018590526002830154938201849052600390920154606082018190528594919361134f939291612058565b9250925050915091565b611361612bd7565b60408051808201909152600080825260208201526113808585856120d8565b915091505b935093915050565b611395611a9a565b60405163ca5eb5e160e01b81526001600160a01b0382811660048301527f0000000000000000000000000000000000000000000000000000000000000000169063ca5eb5e190602401600060405180830381600087803b1580156113f857600080fd5b505af115801561140c573d6000803e3d6000fd5b5050505050565b3330146114335760405163029a949d60e31b815260040160405180910390fd5b610c8d87878787878787610c7e565b61144a611a9a565b600280546001600160a01b0319166001600160a01b0383169081179091556040519081527fd48d879cef83a1c0bdda516f27b13ddb1b3f8bbac1c9e1511bb2a659c242776090602001610ec7565b6001600160a01b03918216600090815260066020908152604080832093909416825291909152205490565b6114cb611a9a565b6001600160a01b0381166115305760405162461bcd60e51b815260206004820152602660248201527f4f776e61626c653a206e6577206f776e657220697320746865207a65726f206160448201526564647265737360d01b6064820152608401610c1d565b61153981611e98565b50565b600060208201803590600190839061155490866130c8565b63ffffffff1681526020810191909152604001600020541492915050565b6001600160a01b0383166115d45760405162461bcd60e51b8152602060048201526024808201527f45524332303a20617070726f76652066726f6d20746865207a65726f206164646044820152637265737360e01b6064820152608401610c1d565b6001600160a01b0382166116355760405162461bcd60e51b815260206004820152602260248201527f45524332303a20617070726f766520746f20746865207a65726f206164647265604482015261737360f01b6064820152608401610c1d565b6001600160a01b0383811660008181526006602090815260408083209487168084529482529182902085905590518481527f8c5be1e5ebec7d5bd14f71427d1e84f3dd0314c0f7b2291e5b200ac8c7c3b925910160405180910390a3505050565b6000806116a2856121d3565b915081905083811015611385576040516371c4efed60e01b81526004810182905260248101859052604401610c1d565b63ffffffff811660009081526001602052604081205480610a3f5760405163f6ff4fb760e01b815263ffffffff84166004820152602401610c1d565b600061172061171d878761220a565b90565b9050600061174c8261173a6117358a8a612222565b612245565b61174760208d018d6130c8565b61227a565b9050602886111561181357600061178961176c60608c0160408d01613787565b61177960208d018d6130c8565b846117848c8c6122b1565b6122fc565b604051633e5ac80960e11b81529091506001600160a01b037f00000000000000000000000000000000000000000000000000000000000000001690637cb59012906117df9086908d9060009087906004016137a4565b600060405180830381600087803b1580156117f957600080fd5b505af115801561180d573d6000803e3d6000fd5b50505050505b6001600160a01b038216887fefed6d3500546b29533b128a29e3a94d70788727f0507505ac12eaf2e578fd9c61184c60208d018d6130c8565b6040805163ffffffff9092168252602082018690520160405180910390a3505050505050505050565b60006118818484611498565b905060001981146118e957818110156118dc5760405162461bcd60e51b815260206004820152601d60248201527f45524332303a20696e73756666696369656e7420616c6c6f77616e63650000006044820152606401610c1d565b6118e98484848403611572565b50505050565b6001600160a01b0383166119535760405162461bcd60e51b815260206004820152602560248201527f45524332303a207472616e736665722066726f6d20746865207a65726f206164604482015264647265737360d81b6064820152608401610c1d565b6001600160a01b0382166119b55760405162461bcd60e51b815260206004820152602360248201527f45524332303a207472616e7366657220746f20746865207a65726f206164647260448201526265737360e81b6064820152608401610c1d565b6001600160a01b03831660009081526005602052604090205481811015611a2d5760405162461bcd60e51b815260206004820152602660248201527f45524332303a207472616e7366657220616d6f756e7420657863656564732062604482015265616c616e636560d01b6064820152608401610c1d565b6001600160a01b0380851660008181526005602052604080822086860390559286168082529083902080548601905591517fddf252ad1be2c89b69c2b068fc378daa952ba7f163c4a11628f55a4df523b3ef90611a8d9086815260200190565b60405180910390a36118e9565b6000546001600160a01b03163314610d6b5760405162461bcd60e51b815260206004820181905260248201527f4f776e61626c653a2063616c6c6572206973206e6f7420746865206f776e65726044820152606401610c1d565b63ffffffff8216600081815260016020908152604091829020849055815192835282018390527f238399d427b947898edb290f5ff0f9109849b1c3ba196a42e35f00c50a54b98b910160405180910390a15050565b6060806000611ba68560200135611b5f86612333565b611b6c60a0890189613639565b8080601f01602080910402602001604051908101604052809392919081815260200183838082843760009201919091525061238d92505050565b9093509050600081611bb9576001611bbc565b60025b9050611bdc611bce60208801886130c8565b8261087860808a018a613639565b6004549093506001600160a01b03168015611c625760405163043a78eb60e01b81526001600160a01b0382169063043a78eb90611c1f90889088906004016137d5565b602060405180830381865afa158015611c3c573d6000803e3d6000fd5b505050506040513d601f19601f82011682018060405250810190611c6091906137fa565b505b5050509250929050565b60408051808201909152600080825260208201527f00000000000000000000000000000000000000000000000000000000000000006001600160a01b031663ddc28c586040518060a001604052808863ffffffff168152602001611ccf896116d2565b8152602001878152602001868152602001851515815250306040518363ffffffff1660e01b8152600401611d04929190613817565b6040805180830381865afa158015611d20573d6000803e3d6000fd5b505050506040513d601f19601f82011682018060405250810190611d4491906138c0565b95945050505050565b611d55612407565b600b805460ff191690557f5db9ee0a495bf2e6ff9c91a7834c1ba4fdd244a5e8aa4e537bd38aeae4b073aa335b6040516001600160a01b03909116815260200160405180910390a1565b60005b8151811015611e68576000600a6000848481518110611dc357611dc3613602565b60200260200101516000015163ffffffff1663ffffffff1681526020019081526020016000209050611e13838381518110611e0057611e00613602565b6020026020010151600001516000612450565b828281518110611e2557611e25613602565b6020026020010151602001518160020181905550828281518110611e4b57611e4b613602565b602090810291909101015160400151600390910155600101611da2565b507fe888347665897e637801f36c5129f510657276178c89022bc5fa0246dbc19de181604051610ec791906138dc565b600080546001600160a01b038381166001600160a01b0319831681178455604051919092169283917f8be0079c531659141344cd1fd0a4f28419497f9722a3daafe3b4186f6b6457e09190a35050565b611ef06124c6565b600b805460ff191660011790557f62e78cea01bee320cd4e420270b5ea74000d11b0c9f74754ebdbfc544b05a258611d823390565b60005b8151811015611ffc57611f57828281518110611f4657611f46613602565b60200260200101516040015161202c565b818181518110611f6957611f69613602565b60200260200101516040015160036000848481518110611f8b57611f8b613602565b60200260200101516000015163ffffffff1663ffffffff1681526020019081526020016000206000848481518110611fc557611fc5613602565b60200260200101516020015161ffff1661ffff1681526020019081526020016000209081611ff3919061398b565b50600101611f28565b507fbe4864a8e820971c0247f5992e2da559595f7bf076a21cb5928d443d2a13b67481604051610ec79190613a4a565b600281015161ffff8116600314610cce5781604051639a6d49cd60e01b8152600401610c1d9190612c6e565b600080806120668642613ad5565b905083811061207b57600092508491506120ce565b6000846120888388613ae8565b6120929190613aff565b9050808811156120ab576120a68189613ad5565b6120ae565b60005b9350838611156120c7576120c28487613ad5565b6120ca565b60005b9250505b5094509492505050565b6120e0612bd7565b604080518082019091526000808252602082015260008061211733604089013560608a013561211260208c018c6130c8565b61250c565b915091506000806121288984611b49565b909250905061215461213d60208b018b6130c8565b838361214e368d90038d018d613b21565b8b61255d565b60408051808201909152858152602080820186905282519298509096503391907f85496b760a4b7f8d66384b9df21b381f5d1b1e79f229a47aaf4c232edc2fe59a906121a2908d018d6130c8565b6040805163ffffffff909216825260208201899052810187905260600160405180910390a350505050935093915050565b60007f00000000000000000000000000000000000000000000000000000000000000006122008184613aff565b610a3f9190613ae8565b60006122196020828486613573565b610cb591613b53565b6000612232602860208486613573565b61223b91613b71565b60c01c9392505050565b6000610a3f7f00000000000000000000000000000000000000000000000000000000000000006001600160401b038416613ae8565b6000612288600b5460ff1690565b156122a65760405163ab35696f60e01b815260040160405180910390fd5b610ef1848484612668565b60606122c08260288186613573565b8080601f016020809104026020016040519081016040528093929190818152602001838380828437600092019190915250929695505050505050565b6060848484846040516020016123159493929190613ba1565b6040516020818303038152906040529050949350505050565b505050565b6000806123607f000000000000000000000000000000000000000000000000000000000000000084613aff565b90506001600160401b03811115610a3f5760405163e2ce941360e01b815260048101829052602401610c1d565b80516060901515806123d65784846040516020016123c292919091825260c01b6001600160c01b031916602082015260280190565b6040516020818303038152906040526123fd565b848433856040516020016123ed9493929190613bf0565b6040516020818303038152906040525b9150935093915050565b600b5460ff16610d6b5760405162461bcd60e51b815260206004820152601460248201527314185d5cd8589b194e881b9bdd081c185d5cd95960621b6044820152606401610c1d565b63ffffffff82166000908152600a60205260408120805460018201546002830154600384015493949384936124889390929091612058565b91509150808411156124ad5760405163a74c1c5f60e01b815260040160405180910390fd5b6124b78483613367565b83555050426001909101555050565b600b5460ff1615610d6b5760405162461bcd60e51b815260206004820152601060248201526f14185d5cd8589b194e881c185d5cd95960821b6044820152606401610c1d565b60008061251b600b5460ff1690565b156125395760405163ab35696f60e01b815260040160405180910390fd5b61254586868686612690565b90925090506125548383612450565b94509492505050565b612565612bd7565b600061257484600001516126ad565b60208501519091501561258e5761258e84602001516126d5565b7f00000000000000000000000000000000000000000000000000000000000000006001600160a01b0316632637a450826040518060a001604052808b63ffffffff1681526020016125de8c6116d2565b81526020018a815260200189815260200160008960200151111515815250866040518463ffffffff1660e01b815260040161261a929190613817565b60806040518083038185885af1158015612638573d6000803e3d6000fd5b50505050506040513d601f19601f8201168201806040525081019061265d9190613c33565b979650505050505050565b60006001600160a01b03841661267e5761dead93505b61268884846127b7565b509092915050565b60008061269e858585611696565b90925090506125548683612878565b60008134146126d1576040516304fb820960e51b8152346004820152602401610c1d565b5090565b60007f00000000000000000000000000000000000000000000000000000000000000006001600160a01b031663e4fe1d946040518163ffffffff1660e01b8152600401602060405180830381865afa158015612735573d6000803e3d6000fd5b505050506040513d601f19601f820116820180604052508101906127599190613305565b90506001600160a01b038116612782576040516329b99a9560e11b815260040160405180910390fd5b610cce6001600160a01b038216337f0000000000000000000000000000000000000000000000000000000000000000856129ac565b6001600160a01b03821661280d5760405162461bcd60e51b815260206004820152601f60248201527f45524332303a206d696e7420746f20746865207a65726f2061646472657373006044820152606401610c1d565b806007600082825461281f9190613367565b90915550506001600160a01b0382166000818152600560209081526040808320805486019055518481527fddf252ad1be2c89b69c2b068fc378daa952ba7f163c4a11628f55a4df523b3ef910160405180910390a35050565b6001600160a01b0382166128d85760405162461bcd60e51b815260206004820152602160248201527f45524332303a206275726e2066726f6d20746865207a65726f206164647265736044820152607360f81b6064820152608401610c1d565b6001600160a01b0382166000908152600560205260409020548181101561294c5760405162461bcd60e51b815260206004820152602260248201527f45524332303a206275726e20616d6f756e7420657863656564732062616c616e604482015261636560f01b6064820152608401610c1d565b6001600160a01b03831660008181526005602090815260408083208686039055600780548790039055518581529192917fddf252ad1be2c89b69c2b068fc378daa952ba7f163c4a11628f55a4df523b3ef910160405180910390a3505050565b604080516001600160a01b038581166024830152848116604483015260648083018590528351808403909101815260849092018352602080830180516001600160e01b03166323b872dd60e01b17905283518085019094528084527f5361666545524332303a206c6f772d6c6576656c2063616c6c206661696c6564908401526118e992879291600091612a44918516908490612ac4565b9050805160001480612a65575080806020019051810190612a6591906137fa565b61232e5760405162461bcd60e51b815260206004820152602a60248201527f5361666545524332303a204552433230206f7065726174696f6e20646964206e6044820152691bdd081cdd58d8d9595960b21b6064820152608401610c1d565b6060610ef1848460008585600080866001600160a01b03168587604051612aeb9190613c7d565b60006040518083038185875af1925050503d8060008114612b28576040519150601f19603f3d011682016040523d82523d6000602084013e612b2d565b606091505b509150915061265d8783838760608315612ba8578251600003612ba1576001600160a01b0385163b612ba15760405162461bcd60e51b815260206004820152601d60248201527f416464726573733a2063616c6c20746f206e6f6e2d636f6e74726163740000006044820152606401610c1d565b5081610ef1565b610ef18383815115612bbd5781518083602001fd5b8060405162461bcd60e51b8152600401610c1d9190612c6e565b60405180606001604052806000801916815260200160006001600160401b03168152602001612c19604051806040016040528060008152602001600081525090565b905290565b60005b83811015612c39578181015183820152602001612c21565b50506000910152565b60008151808452612c5a816020860160208601612c1e565b601f01601f19169290920160200192915050565b602081526000610cb56020830184612c42565b6001600160a01b038116811461153957600080fd5b60008060408385031215612ca957600080fd5b8235612cb481612c81565b946020939093013593505050565b600060e08284031215612cd457600080fd5b50919050565b600060208284031215612cec57600080fd5b81356001600160401b03811115612d0257600080fd5b610ef184828501612cc2565b8351815260208085015190820152600060a08201604060a0604085015281865180845260c08601915060c08160051b8701019350602080890160005b83811015612d895788870360bf19018552815180518852830151838801879052612d7687890182612c42565b9750509382019390820190600101612d4a565b50508751606088015250505060208501516080850152509050610ef1565b600060608284031215612cd457600080fd5b60008083601f840112612dcb57600080fd5b5081356001600160401b03811115612de257600080fd5b602083019150836020828501011115612dfa57600080fd5b9250929050565b600080600080600080600060e0888a031215612e1c57600080fd5b612e268989612da7565b96506060880135955060808801356001600160401b0380821115612e4957600080fd5b612e558b838c01612db9565b909750955060a08a01359150612e6a82612c81565b90935060c08901359080821115612e8057600080fd5b50612e8d8a828b01612db9565b989b979a50959850939692959293505050565b600080600060608486031215612eb557600080fd5b8335612ec081612c81565b92506020840135612ed081612c81565b929592945050506040919091013590565b803563ffffffff81168114612ef557600080fd5b919050565b60008060408385031215612f0d57600080fd5b612cb483612ee1565b801515811461153957600080fd5b60008060408385031215612f3757600080fd5b82356001600160401b03811115612f4d57600080fd5b612f5985828601612cc2565b9250506020830135612f6a81612f16565b809150509250929050565b815181526020808301519082015260408101610a3f565b60008060208385031215612f9f57600080fd5b82356001600160401b0380821115612fb657600080fd5b818501915085601f830112612fca57600080fd5b813581811115612fd957600080fd5b866020606083028501011115612fee57600080fd5b60209290920196919550909350505050565b803561ffff81168114612ef557600080fd5b6000806040838503121561302557600080fd5b61302e83612ee1565b915061303c60208401613000565b90509250929050565b60006020828403121561305757600080fd5b8135610cb581612c81565b60008060008060a0858703121561307857600080fd5b6130828686612da7565b935060608501356001600160401b0381111561309d57600080fd5b6130a987828801612db9565b90945092505060808501356130bd81612c81565b939692955090935050565b6000602082840312156130da57600080fd5b610cb582612ee1565b60008083601f8401126130f557600080fd5b5081356001600160401b0381111561310c57600080fd5b6020830191508360208260051b8501011115612dfa57600080fd5b6000806020838503121561313a57600080fd5b82356001600160401b0381111561315057600080fd5b61315c858286016130e3565b90969095509350505050565b6000806000806060858703121561317e57600080fd5b61318785612ee1565b935061319560208601613000565b925060408501356001600160401b038111156131b057600080fd5b6131bc87828801612db9565b95989497509550505050565b600080600083850360808112156131de57600080fd5b84356001600160401b038111156131f457600080fd5b61320087828801612cc2565b9450506040601f198201121561321557600080fd5b50602084019150606084013561322a81612c81565b809150509250925092565b600060c082019050835182526001600160401b0360208501511660208301526040840151613270604084018280518252602090810151910152565b5082516080830152602083015160a0830152610cb5565b6000806040838503121561329a57600080fd5b82356132a581612c81565b91506020830135612f6a81612c81565b6000606082840312156132c757600080fd5b610cb58383612da7565b600181811c908216806132e557607f821691505b602082108103612cd457634e487b7160e01b600052602260045260246000fd5b60006020828403121561331757600080fd5b8151610cb581612c81565b60006020828403121561333457600080fd5b5051919050565b634e487b7160e01b600052604160045260246000fd5b634e487b7160e01b600052601160045260246000fd5b80820180821115610a3f57610a3f613351565b604051606081016001600160401b038111828210171561339c5761339c61333b565b60405290565b604080519081016001600160401b038111828210171561339c5761339c61333b565b604051601f8201601f191681016001600160401b03811182821017156133ec576133ec61333b565b604052919050565b60006060828403121561340657600080fd5b61340e61337a565b61341783612ee1565b815260208301356020820152604083013560408201528091505092915050565b60006001600160401b038211156134505761345061333b565b50601f01601f191660200190565b60006001600160401b03808411156134785761347861333b565b8360051b60206134898183016133c4565b8681529185019181810190368411156134a157600080fd5b865b84811015613567578035868111156134bb5760008081fd5b880160603682900312156134cf5760008081fd5b6134d761337a565b6134e082612ee1565b81526134ed868301613000565b86820152604080830135898111156135055760008081fd5b929092019136601f84011261351a5760008081fd5b823561352d61352882613437565b6133c4565b81815236898387010111156135425760008081fd5b818986018a8301376000918101890191909152908201528452509183019183016134a3565b50979650505050505050565b6000808585111561358357600080fd5b8386111561359057600080fd5b5050820193919092039150565b600084516135af818460208901612c1e565b8201838582376000930192835250909392505050565b81835281816020850137506000828201602090810191909152601f909101601f19169091010190565b602081526000610ef16020830184866135c5565b634e487b7160e01b600052603260045260246000fd5b6000823561013e1983360301811261362f57600080fd5b9190910192915050565b6000808335601e1984360301811261365057600080fd5b8301803591506001600160401b0382111561366a57600080fd5b602001915036819003821315612dfa57600080fd5b6001600160401b038116811461153957600080fd5b63ffffffff6136a289612ee1565b16815260208801356020820152600060408901356136bf8161367f565b6001600160401b03811660408401525087606083015260e060808301526136ea60e0830187896135c5565b6001600160a01b03861660a084015282810360c084015261370c8185876135c5565b9a9950505050505050505050565b60006020828403121561372c57600080fd5b81516001600160401b0381111561374257600080fd5b8201601f8101841361375357600080fd5b805161376161352882613437565b81815285602083850101111561377657600080fd5b611d44826020830160208601612c1e565b60006020828403121561379957600080fd5b8135610cb58161367f565b60018060a01b038516815283602082015261ffff83166040820152608060608201526000610d516080830184612c42565b6040815260006137e86040830185612c42565b8281036020840152611d448185612c42565b60006020828403121561380c57600080fd5b8151610cb581612f16565b6040815263ffffffff8351166040820152602083015160608201526000604084015160a0608084015261384d60e0840182612c42565b90506060850151603f198483030160a085015261386a8282612c42565b60809690960151151560c08501525050506001600160a01b039190911660209091015290565b6000604082840312156138a257600080fd5b6138aa6133a2565b9050815181526020820151602082015292915050565b6000604082840312156138d257600080fd5b610cb58383613890565b602080825282518282018190526000919060409081850190868401855b8281101561392e578151805163ffffffff168552868101518786015285015185850152606090930192908501906001016138f9565b5091979650505050505050565b601f82111561232e576000816000526020600020601f850160051c810160208610156139645750805b601f850160051c820191505b8181101561398357828155600101613970565b505050505050565b81516001600160401b038111156139a4576139a461333b565b6139b8816139b284546132d1565b8461393b565b602080601f8311600181146139ed57600084156139d55750858301515b600019600386901b1c1916600185901b178555613983565b600085815260208120601f198616915b82811015613a1c578886015182559484019460019091019084016139fd565b5085821015613a3a5787850151600019600388901b60f8161c191681555b5050505050600190811b01905550565b600060208083018184528085518083526040925060408601915060408160051b87010184880160005b83811015613ac757888303603f190185528151805163ffffffff1684528781015161ffff16888501528601516060878501819052613ab381860183612c42565b968901969450505090860190600101613a73565b509098975050505050505050565b81810381811115610a3f57610a3f613351565b8082028115828204841417610a3f57610a3f613351565b600082613b1c57634e487b7160e01b600052601260045260246000fd5b500490565b600060408284031215613b3357600080fd5b613b3b6133a2565b82358152602083013560208201528091505092915050565b80356020831015610a3f57600019602084900360031b1b1692915050565b6001600160c01b03198135818116916008851015613b995780818660080360031b1b83161692505b505092915050565b6001600160401b0360c01b8560c01b16815263ffffffff60e01b8460e01b16600882015282600c82015260008251613be081602c850160208701612c1e565b91909101602c0195945050505050565b8481526001600160401b0360c01b8460c01b16602082015282602882015260008251613c23816048850160208701612c1e565b9190910160480195945050505050565b600060808284031215613c4557600080fd5b613c4d61337a565b825181526020830151613c5f8161367f565b6020820152613c718460408501613890565b60408201529392505050565b6000825161362f818460208701612c1e56fea26469706673582212200d736e48030454a20b655b15d5b479b60535069356f4fe77fe6135e526b39c7064736f6c63430008160033",
  "devdoc": {
    "details": "Canonical supply remains on Sepolia lockbox; this contract represents synthetic remote supply under OFT accounting.",
    "events": {
      "Approval(address,address,uint256)": {
        "details": "Emitted when the allowance of a `spender` for an `owner` is set by a call to {approve}. `value` is the new allowance."
      },
      "Paused(address)": {
        "details": "Emitted when the pause is triggered by `account`."
      },
      "PreCrimeSet(address)": {
        "details": "Emitted when the preCrime contract address is set.",
        "params": {
          "preCrimeAddress": "The address of the preCrime contract."
        }
      },
      "RateLimitsChanged((uint32,uint256,uint256)[])": {
        "params": {
          "rateLimitConfigs": "An array of `RateLimitConfig` structs representing the rate limit configurations set. - `dstEid`: The destination endpoint id. - `limit`: This represents the maximum allowed amount within a given window. - `window`: Defines the duration of the rate limiting window."
        }
      },
      "Transfer(address,address,uint256)": {
        "details": "Emitted when `value` tokens are moved from one account (`from`) to another (`to`). Note that `value` may be zero."
      },
      "Unpaused(address)": {
        "details": "Emitted when the pause is lifted by `account`."
      }
    },
    "kind": "dev",
    "methods": {
      "allowInitializePath((uint32,bytes32,uint64))": {
        "details": "This indicates to the endpoint that the OApp has enabled msgs for this particular path to be received.This defaults to assuming if a peer has been set, its initialized. Can be overridden by the OApp if there is other logic to determine this.",
        "params": {
          "origin": "The origin information containing the source endpoint and sender address."
        },
        "returns": {
          "_0": "Whether the path has been initialized."
        }
      },
      "allowance(address,address)": {
        "details": "See {IERC20-allowance}."
      },
      "approvalRequired()": {
        "details": "In the case of OFT where the contract IS the token, approval is NOT required.",
        "returns": {
          "_0": "requiresApproval Needs approval of the underlying token implementation."
        }
      },
      "approve(address,uint256)": {
        "details": "See {IERC20-approve}. NOTE: If `amount` is the maximum `uint256`, the allowance is not updated on `transferFrom`. This is semantically equivalent to an infinite approval. Requirements: - `spender` cannot be the zero address."
      },
      "balanceOf(address)": {
        "details": "See {IERC20-balanceOf}."
      },
      "combineOptions(uint32,uint16,bytes)": {
        "details": "If there is an enforced lzReceive option: - {gasLimit: 200k, msg.value: 1 ether} AND a caller supplies a lzReceive option: {gasLimit: 100k, msg.value: 0.5 ether} - The resulting options will be {gasLimit: 300k, msg.value: 1.5 ether} when the message is executed on the remote lzReceive() function.This presence of duplicated options is handled off-chain in the verifier/executor.",
        "params": {
          "_eid": "The endpoint ID.",
          "_extraOptions": "Additional options passed by the caller.",
          "_msgType": "The OAPP message type."
        },
        "returns": {
          "_0": "options The combination of caller specified options AND enforced options."
        }
      },
      "constructor": {
        "params": {
          "delegate_": "Delegate allowed to manage emergency LayerZero config.",
          "lzEndpoint_": "LayerZero endpoint for this remote chain.",
          "name_": "Token name.",
          "symbol_": "Token symbol."
        }
      },
      "decimals()": {
        "details": "Returns the number of decimals used to get its user representation. For example, if `decimals` equals `2`, a balance of `505` tokens should be displayed to a user as `5.05` (`505 / 10 ** 2`). Tokens usually opt for a value of 18, imitating the relationship between Ether and Wei. This is the default value returned by this function, unless it's overridden. NOTE: This information is only used for _display_ purposes: it in no way affects any of the arithmetic of the contract, including {IERC20-balanceOf} and {IERC20-transfer}."
      },
      "decreaseAllowance(address,uint256)": {
        "details": "Atomically decreases the allowance granted to `spender` by the caller. This is an alternative to {approve} that can be used as a mitigation for problems described in {IERC20-approve}. Emits an {Approval} event indicating the updated allowance. Requirements: - `spender` cannot be the zero address. - `spender` must have allowance for the caller of at least `subtractedValue`."
      },
      "getAmountCanBeSent(uint32)": {
        "params": {
          "_dstEid": "The destination endpoint id."
        },
        "returns": {
          "amountCanBeSent": "The amount that can be sent.",
          "currentAmountInFlight": "The current amount that was sent."
        }
      },
      "increaseAllowance(address,uint256)": {
        "details": "Atomically increases the allowance granted to `spender` by the caller. This is an alternative to {approve} that can be used as a mitigation for problems described in {IERC20-approve}. Emits an {Approval} event indicating the updated allowance. Requirements: - `spender` cannot be the zero address."
      },
      "isComposeMsgSender((uint32,bytes32,uint64),bytes,address)": {
        "details": "_origin The origin information containing the source endpoint and sender address.  - srcEid: The source chain endpoint ID.  - sender: The sender address on the src chain.  - nonce: The nonce of the message._message The lzReceive payload.Applications can optionally choose to implement separate composeMsg senders that are NOT the bridging layer.The default sender IS the OAppReceiver implementer.",
        "params": {
          "_sender": "The sender address."
        },
        "returns": {
          "_0": "isSender Is a valid sender."
        }
      },
      "isPeer(uint32,bytes32)": {
        "details": "Check if the peer is considered 'trusted' by the OApp.Enables OAppPreCrimeSimulator to check whether a potential Inbound Packet is from a trusted source.",
        "params": {
          "_eid": "The endpoint ID to check.",
          "_peer": "The peer to check."
        },
        "returns": {
          "_0": "Whether the peer passed is considered 'trusted' by the OApp."
        }
      },
      "lzReceive((uint32,bytes32,uint64),bytes32,bytes,address,bytes)": {
        "details": "Entry point for receiving messages or packets from the endpoint.Entry point for receiving msg/packet from the LayerZero endpoint.",
        "params": {
          "_executor": "The address of the executor for the received message.",
          "_extraData": "Additional arbitrary data provided by the corresponding executor.",
          "_guid": "The unique identifier for the received LayerZero message.",
          "_message": "The payload of the received message.",
          "_origin": "The origin information containing the source endpoint and sender address.  - srcEid: The source chain endpoint ID.  - sender: The sender address on the src chain.  - nonce: The nonce of the message."
        }
      },
      "lzReceiveAndRevert(((uint32,bytes32,uint64),uint32,address,bytes32,uint256,address,bytes,bytes)[])": {
        "details": "Interface for pre-crime simulations. Always reverts at the end with the simulation results.WARNING: MUST revert at the end with the simulation results.Gives the preCrime implementation the ability to mock sending packets to the lzReceive function, WITHOUT actually executing them.",
        "params": {
          "_packets": "An array of InboundPacket objects representing received packets to be delivered."
        }
      },
      "lzReceiveSimulate((uint32,bytes32,uint64),bytes32,bytes,address,bytes)": {
        "details": "Is effectively an internal function because msg.sender must be address(this). Allows resetting the call stack for 'internal' calls.",
        "params": {
          "_executor": "The executor address for the packet.",
          "_extraData": "Additional data for the packet.",
          "_guid": "The unique identifier of the packet.",
          "_message": "The message payload of the packet.",
          "_origin": "The origin information containing the source endpoint and sender address.  - srcEid: The source chain endpoint ID.  - sender: The sender address on the src chain.  - nonce: The nonce of the message."
        }
      },
      "name()": {
        "details": "Returns the name of the token."
      },
      "nextNonce(uint32,bytes32)": {
        "details": "_srcEid The source endpoint ID._sender The sender address.The path nonce starts from 1. If 0 is returned it means that there is NO nonce ordered enforcement.Is required by the off-chain executor to determine the OApp expects msg execution is ordered.This is also enforced by the OApp.By default this is NOT enabled. ie. nextNonce is hardcoded to return 0.",
        "returns": {
          "nonce": "The next nonce."
        }
      },
      "oApp()": {
        "details": "Retrieves the address of the OApp contract.The simulator contract is the base contract for the OApp by default.If the simulator is a separate contract, override this function.",
        "returns": {
          "_0": "The address of the OApp contract."
        }
      },
      "oAppVersion()": {
        "returns": {
          "receiverVersion": "The version of the OAppReceiver.sol implementation.",
          "senderVersion": "The version of the OAppSender.sol implementation."
        }
      },
      "oftVersion()": {
        "details": "interfaceId: This specific interface ID is '0x02e49c2c'.version: Indicates a cross-chain compatible msg encoding with other OFTs.If a new feature is added to the OFT cross-chain msg encoding, the version will be incremented. ie. localOFT version(x,1) CAN send messages to remoteOFT version(x,1)",
        "returns": {
          "interfaceId": "The interface ID.",
          "version": "The version."
        }
      },
      "owner()": {
        "details": "Returns the address of the current owner."
      },
      "paused()": {
        "details": "Returns true if the contract is paused, and false otherwise."
      },
      "quoteOFT((uint32,bytes32,uint256,uint256,bytes,bytes,bytes))": {
        "params": {
          "_sendParam": "The parameters for the send operation."
        },
        "returns": {
          "oftFeeDetails": "The details of OFT fees.",
          "oftLimit": "The OFT limit information.",
          "oftReceipt": "The OFT receipt information."
        }
      },
      "quoteSend((uint32,bytes32,uint256,uint256,bytes,bytes,bytes),bool)": {
        "details": "MessagingFee: LayerZero msg fee  - nativeFee: The native fee.  - lzTokenFee: The lzToken fee.",
        "params": {
          "_payInLzToken": "Flag indicating whether the caller is paying in the LZ token.",
          "_sendParam": "The parameters for the send() operation."
        },
        "returns": {
          "msgFee": "The calculated LayerZero messaging fee from the send() operation."
        }
      },
      "renounceOwnership()": {
        "details": "Leaves the contract without owner. It will not be possible to call `onlyOwner` functions. Can only be called by the current owner. NOTE: Renouncing ownership will leave the contract without an owner, thereby disabling any functionality that is only available to the owner."
      },
      "send((uint32,bytes32,uint256,uint256,bytes,bytes,bytes),(uint256,uint256),address)": {
        "details": "Executes the send operation.MessagingReceipt: LayerZero msg receipt  - guid: The unique identifier for the sent message.  - nonce: The nonce of the sent message.  - fee: The LayerZero fee incurred for the message.",
        "params": {
          "_fee": "The calculated fee for the send() operation.      - nativeFee: The native fee.      - lzTokenFee: The lzToken fee.",
          "_refundAddress": "The address to receive any excess funds.",
          "_sendParam": "The parameters for the send operation."
        },
        "returns": {
          "msgReceipt": "The receipt for the send operation.",
          "oftReceipt": "The OFT receipt information."
        }
      },
      "setDelegate(address)": {
        "details": "Only the owner/admin of the OApp can call this function.Provides the ability for a delegate to set configs, on behalf of the OApp, directly on the Endpoint contract.",
        "params": {
          "_delegate": "The address of the delegate to be set."
        }
      },
      "setEnforcedOptions((uint32,uint16,bytes)[])": {
        "details": "Sets the enforced options for specific endpoint and message type combinations.Only the owner/admin of the OApp can call this function.Provides a way for the OApp to enforce things like paying for PreCrime, AND/OR minimum dst lzReceive gas amounts etc.These enforced options can vary as the potential options/execution on the remote may differ as per the msgType. eg. Amount of lzReceive() gas necessary to deliver a lzCompose() message adds overhead you dont want to pay if you are only making a standard LayerZero message ie. lzReceive() WITHOUT sendCompose().",
        "params": {
          "_enforcedOptions": "An array of EnforcedOptionParam structures specifying enforced options."
        }
      },
      "setMsgInspector(address)": {
        "details": "Sets the message inspector address for the OFT.This is an optional contract that can be used to inspect both 'message' and 'options'.Set it to address(0) to disable it, or set it to a contract address to enable it.",
        "params": {
          "_msgInspector": "The address of the message inspector."
        }
      },
      "setPeer(uint32,bytes32)": {
        "details": "Only the owner/admin of the OApp can call this function.Indicates that the peer is trusted to send LayerZero messages to this OApp.Set this to bytes32(0) to remove the peer address.Peer is a bytes32 to accommodate non-evm chains.",
        "params": {
          "_eid": "The endpoint ID.",
          "_peer": "The address of the peer to be associated with the corresponding endpoint."
        }
      },
      "setPreCrime(address)": {
        "details": "Sets the preCrime contract address.",
        "params": {
          "_preCrime": "The address of the preCrime contract."
        }
      },
      "setRateLimits((uint32,uint256,uint256)[])": {
        "details": "Each config entry sets destination eid, token limit, and window size in seconds.",
        "params": {
          "rateLimitConfigs": "Array of destination rate limit configurations."
        }
      },
      "sharedDecimals()": {
        "returns": {
          "_0": "Shared decimal count for cross-chain amount normalization."
        }
      },
      "symbol()": {
        "details": "Returns the symbol of the token, usually a shorter version of the name."
      },
      "token()": {
        "details": "Retrieves the address of the underlying ERC20 implementation.In the case of OFT, address(this) and erc20 are the same contract.",
        "returns": {
          "_0": "The address of the OFT token."
        }
      },
      "totalSupply()": {
        "details": "See {IERC20-totalSupply}."
      },
      "transfer(address,uint256)": {
        "details": "See {IERC20-transfer}. Requirements: - `to` cannot be the zero address. - the caller must have a balance of at least `amount`."
      },
      "transferFrom(address,address,uint256)": {
        "details": "See {IERC20-transferFrom}. Emits an {Approval} event indicating the updated allowance. This is not required by the EIP. See the note at the beginning of {ERC20}. NOTE: Does not update the allowance if the current allowance is the maximum `uint256`. Requirements: - `from` and `to` cannot be the zero address. - `from` must have a balance of at least `amount`. - the caller must have allowance for ``from``'s tokens of at least `amount`."
      },
      "transferOwnership(address)": {
        "details": "Transfers ownership of the contract to a new account (`newOwner`). Can only be called by the current owner."
      }
    },
    "version": 1
  },
  "userdoc": {
    "errors": {
      "RateLimitExceeded()": [
        {
          "notice": "Error that is thrown when an amount exceeds the rate_limit."
        }
      ]
    },
    "events": {
      "RateLimitsChanged((uint32,uint256,uint256)[])": {
        "notice": "Emitted when _setRateLimits occurs."
      }
    },
    "kind": "user",
    "methods": {
      "allowInitializePath((uint32,bytes32,uint64))": {
        "notice": "Checks if the path initialization is allowed based on the provided origin."
      },
      "approvalRequired()": {
        "notice": "Indicates whether the OFT contract requires approval of the 'token()' to send."
      },
      "combineOptions(uint32,uint16,bytes)": {
        "notice": "Combines options for a given endpoint and message type."
      },
      "constructor": {
        "notice": "Deploys a remote OFT instance and sets a non-zero LayerZero delegate."
      },
      "endpoint()": {
        "notice": "Retrieves the LayerZero endpoint associated with the OApp."
      },
      "getAmountCanBeSent(uint32)": {
        "notice": "Get the current amount that can be sent to this destination endpoint id for the given rate limit window."
      },
      "isComposeMsgSender((uint32,bytes32,uint64),bytes,address)": {
        "notice": "Indicates whether an address is an approved composeMsg sender to the Endpoint."
      },
      "nextNonce(uint32,bytes32)": {
        "notice": "Retrieves the next nonce for a given source endpoint and sender address."
      },
      "oAppVersion()": {
        "notice": "Retrieves the OApp version information."
      },
      "oftVersion()": {
        "notice": "Retrieves interfaceID and the version of the OFT."
      },
      "pause()": {
        "notice": "Pauses bridge debit/credit execution."
      },
      "peers(uint32)": {
        "notice": "Retrieves the peer (OApp) associated with a corresponding endpoint."
      },
      "quoteOFT((uint32,bytes32,uint256,uint256,bytes,bytes,bytes))": {
        "notice": "Provides the fee breakdown and settings data for an OFT. Unused in the default implementation."
      },
      "quoteSend((uint32,bytes32,uint256,uint256,bytes,bytes,bytes),bool)": {
        "notice": "Provides a quote for the send() operation."
      },
      "setDelegate(address)": {
        "notice": "Sets the delegate address for the OApp."
      },
      "setPeer(uint32,bytes32)": {
        "notice": "Sets the peer address (OApp instance) for a corresponding endpoint."
      },
      "setRateLimits((uint32,uint256,uint256)[])": {
        "notice": "Sets per-destination rate limits for outbound sends."
      },
      "sharedDecimals()": {
        "notice": "Returns mesh-wide shared decimals used for LayerZero OFT normalization."
      },
      "unpause()": {
        "notice": "Unpauses bridge debit/credit execution."
      }
    },
    "notice": "Remote-chain OFT for LegacyToken using mint-on-receive and burn-on-send behavior.",
    "version": 1
  },
  "storageLayout": {
    "storage": [
      {
        "astId": 4242,
        "contract": "contracts/bridge/LegacyTokenOFT.sol:LegacyTokenOFT",
        "label": "_owner",
        "offset": 0,
        "slot": "0",
        "type": "t_address"
      },
      {
        "astId": 1642,
        "contract": "contracts/bridge/LegacyTokenOFT.sol:LegacyTokenOFT",
        "label": "peers",
        "offset": 0,
        "slot": "1",
        "type": "t_mapping(t_uint32,t_bytes32)"
      },
      {
        "astId": 2418,
        "contract": "contracts/bridge/LegacyTokenOFT.sol:LegacyTokenOFT",
        "label": "preCrime",
        "offset": 0,
        "slot": "2",
        "type": "t_address"
      },
      {
        "astId": 2258,
        "contract": "contracts/bridge/LegacyTokenOFT.sol:LegacyTokenOFT",
        "label": "enforcedOptions",
        "offset": 0,
        "slot": "3",
        "type": "t_mapping(t_uint32,t_mapping(t_uint16,t_bytes_storage))"
      },
      {
        "astId": 3168,
        "contract": "contracts/bridge/LegacyTokenOFT.sol:LegacyTokenOFT",
        "label": "msgInspector",
        "offset": 0,
        "slot": "4",
        "type": "t_address"
      },
      {
        "astId": 4471,
        "contract": "contracts/bridge/LegacyTokenOFT.sol:LegacyTokenOFT",
        "label": "_balances",
        "offset": 0,
        "slot": "5",
        "type": "t_mapping(t_address,t_uint256)"
      },
      {
        "astId": 4477,
        "contract": "contracts/bridge/LegacyTokenOFT.sol:LegacyTokenOFT",
        "label": "_allowances",
        "offset": 0,
        "slot": "6",
        "type": "t_mapping(t_address,t_mapping(t_address,t_uint256))"
      },
      {
        "astId": 4479,
        "contract": "contracts/bridge/LegacyTokenOFT.sol:LegacyTokenOFT",
        "label": "_totalSupply",
        "offset": 0,
        "slot": "7",
        "type": "t_uint256"
      },
      {
        "astId": 4481,
        "contract": "contracts/bridge/LegacyTokenOFT.sol:LegacyTokenOFT",
        "label": "_name",
        "offset": 0,
        "slot": "8",
        "type": "t_string_storage"
      },
      {
        "astId": 4483,
        "contract": "contracts/bridge/LegacyTokenOFT.sol:LegacyTokenOFT",
        "label": "_symbol",
        "offset": 0,
        "slot": "9",
        "type": "t_string_storage"
      },
      {
        "astId": 26,
        "contract": "contracts/bridge/LegacyTokenOFT.sol:LegacyTokenOFT",
        "label": "rateLimits",
        "offset": 0,
        "slot": "10",
        "type": "t_mapping(t_uint32,t_struct(RateLimit)12_storage)"
      },
      {
        "astId": 4365,
        "contract": "contracts/bridge/LegacyTokenOFT.sol:LegacyTokenOFT",
        "label": "_paused",
        "offset": 0,
        "slot": "11",
        "type": "t_bool"
      }
    ],
    "types": {
      "t_address": {
        "encoding": "inplace",
        "label": "address",
        "numberOfBytes": "20"
      },
      "t_bool": {
        "encoding": "inplace",
        "label": "bool",
        "numberOfBytes": "1"
      },
      "t_bytes32": {
        "encoding": "inplace",
        "label": "bytes32",
        "numberOfBytes": "32"
      },
      "t_bytes_storage": {
        "encoding": "bytes",
        "label": "bytes",
        "numberOfBytes": "32"
      },
      "t_mapping(t_address,t_mapping(t_address,t_uint256))": {
        "encoding": "mapping",
        "key": "t_address",
        "label": "mapping(address => mapping(address => uint256))",
        "numberOfBytes": "32",
        "value": "t_mapping(t_address,t_uint256)"
      },
      "t_mapping(t_address,t_uint256)": {
        "encoding": "mapping",
        "key": "t_address",
        "label": "mapping(address => uint256)",
        "numberOfBytes": "32",
        "value": "t_uint256"
      },
      "t_mapping(t_uint16,t_bytes_storage)": {
        "encoding": "mapping",
        "key": "t_uint16",
        "label": "mapping(uint16 => bytes)",
        "numberOfBytes": "32",
        "value": "t_bytes_storage"
      },
      "t_mapping(t_uint32,t_bytes32)": {
        "encoding": "mapping",
        "key": "t_uint32",
        "label": "mapping(uint32 => bytes32)",
        "numberOfBytes": "32",
        "value": "t_bytes32"
      },
      "t_mapping(t_uint32,t_mapping(t_uint16,t_bytes_storage))": {
        "encoding": "mapping",
        "key": "t_uint32",
        "label": "mapping(uint32 => mapping(uint16 => bytes))",
        "numberOfBytes": "32",
        "value": "t_mapping(t_uint16,t_bytes_storage)"
      },
      "t_mapping(t_uint32,t_struct(RateLimit)12_storage)": {
        "encoding": "mapping",
        "key": "t_uint32",
        "label": "mapping(uint32 => struct RateLimiter.RateLimit)",
        "numberOfBytes": "32",
        "value": "t_struct(RateLimit)12_storage"
      },
      "t_string_storage": {
        "encoding": "bytes",
        "label": "string",
        "numberOfBytes": "32"
      },
      "t_struct(RateLimit)12_storage": {
        "encoding": "inplace",
        "label": "struct RateLimiter.RateLimit",
        "members": [
          {
            "astId": 5,
            "contract": "contracts/bridge/LegacyTokenOFT.sol:LegacyTokenOFT",
            "label": "amountInFlight",
            "offset": 0,
            "slot": "0",
            "type": "t_uint256"
          },
          {
            "astId": 7,
            "contract": "contracts/bridge/LegacyTokenOFT.sol:LegacyTokenOFT",
            "label": "lastUpdated",
            "offset": 0,
            "slot": "1",
            "type": "t_uint256"
          },
          {
            "astId": 9,
            "contract": "contracts/bridge/LegacyTokenOFT.sol:LegacyTokenOFT",
            "label": "limit",
            "offset": 0,
            "slot": "2",
            "type": "t_uint256"
          },
          {
            "astId": 11,
            "contract": "contracts/bridge/LegacyTokenOFT.sol:LegacyTokenOFT",
            "label": "window",
            "offset": 0,
            "slot": "3",
            "type": "t_uint256"
          }
        ],
        "numberOfBytes": "128"
      },
      "t_uint16": {
        "encoding": "inplace",
        "label": "uint16",
        "numberOfBytes": "2"
      },
      "t_uint256": {
        "encoding": "inplace",
        "label": "uint256",
        "numberOfBytes": "32"
      },
      "t_uint32": {
        "encoding": "inplace",
        "label": "uint32",
        "numberOfBytes": "4"
      }
    }
  }
}